{
  "contractName": "ChainScoreClient",
  "abi": [
    {
      "inputs": [
        {
          "internalType": "address",
          "name": "scoreToken",
          "type": "address"
        },
        {
          "internalType": "address",
          "name": "oracle",
          "type": "address"
        },
        {
          "internalType": "bytes32",
          "name": "_jobSpec",
          "type": "bytes32"
        }
      ],
      "stateMutability": "nonpayable",
      "type": "constructor"
    },
    {
      "anonymous": false,
      "inputs": [
        {
          "indexed": true,
          "internalType": "bytes32",
          "name": "id",
          "type": "bytes32"
        }
      ],
      "name": "ChainlinkCancelled",
      "type": "event"
    },
    {
      "anonymous": false,
      "inputs": [
        {
          "indexed": true,
          "internalType": "bytes32",
          "name": "id",
          "type": "bytes32"
        }
      ],
      "name": "ChainlinkFulfilled",
      "type": "event"
    },
    {
      "anonymous": false,
      "inputs": [
        {
          "indexed": true,
          "internalType": "bytes32",
          "name": "id",
          "type": "bytes32"
        }
      ],
      "name": "ChainlinkRequested",
      "type": "event"
    },
    {
      "anonymous": false,
      "inputs": [
        {
          "indexed": true,
          "internalType": "address",
          "name": "from",
          "type": "address"
        },
        {
          "indexed": true,
          "internalType": "address",
          "name": "to",
          "type": "address"
        }
      ],
      "name": "OwnershipTransferRequested",
      "type": "event"
    },
    {
      "anonymous": false,
      "inputs": [
        {
          "indexed": true,
          "internalType": "address",
          "name": "from",
          "type": "address"
        },
        {
          "indexed": true,
          "internalType": "address",
          "name": "to",
          "type": "address"
        }
      ],
      "name": "OwnershipTransferred",
      "type": "event"
    },
    {
      "anonymous": false,
      "inputs": [
        {
          "indexed": true,
          "internalType": "bytes32",
          "name": "requestId",
          "type": "bytes32"
        },
        {
          "indexed": true,
          "internalType": "uint256",
          "name": "score",
          "type": "uint256"
        },
        {
          "indexed": false,
          "internalType": "uint256",
          "name": "supply_score",
          "type": "uint256"
        },
        {
          "indexed": false,
          "internalType": "uint256",
          "name": "value_score",
          "type": "uint256"
        },
        {
          "indexed": false,
          "internalType": "uint256",
          "name": "repayment_score",
          "type": "uint256"
        },
        {
          "indexed": false,
          "internalType": "uint256",
          "name": "debt_score",
          "type": "uint256"
        },
        {
          "indexed": true,
          "internalType": "address",
          "name": "user",
          "type": "address"
        }
      ],
      "name": "ScoreRequestFulfilled",
      "type": "event"
    },
    {
      "inputs": [],
      "name": "acceptOwnership",
      "outputs": [],
      "stateMutability": "nonpayable",
      "type": "function"
    },
    {
      "inputs": [],
      "name": "jobSpec",
      "outputs": [
        {
          "internalType": "bytes32",
          "name": "",
          "type": "bytes32"
        }
      ],
      "stateMutability": "view",
      "type": "function",
      "constant": true
    },
    {
      "inputs": [],
      "name": "owner",
      "outputs": [
        {
          "internalType": "address",
          "name": "",
          "type": "address"
        }
      ],
      "stateMutability": "view",
      "type": "function",
      "constant": true
    },
    {
      "inputs": [
        {
          "internalType": "address",
          "name": "",
          "type": "address"
        }
      ],
      "name": "scores",
      "outputs": [
        {
          "internalType": "uint256",
          "name": "score",
          "type": "uint256"
        },
        {
          "internalType": "uint256",
          "name": "supply",
          "type": "uint256"
        },
        {
          "internalType": "uint256",
          "name": "value",
          "type": "uint256"
        },
        {
          "internalType": "uint256",
          "name": "debt",
          "type": "uint256"
        },
        {
          "internalType": "uint256",
          "name": "repayment",
          "type": "uint256"
        }
      ],
      "stateMutability": "view",
      "type": "function",
      "constant": true
    },
    {
      "inputs": [
        {
          "internalType": "address",
          "name": "to",
          "type": "address"
        }
      ],
      "name": "transferOwnership",
      "outputs": [],
      "stateMutability": "nonpayable",
      "type": "function"
    },
    {
      "inputs": [
        {
          "internalType": "address",
          "name": "_address",
          "type": "address"
        }
      ],
      "name": "requestScore",
      "outputs": [],
      "stateMutability": "nonpayable",
      "type": "function"
    },
    {
      "inputs": [
        {
          "internalType": "bytes32",
          "name": "requestId",
          "type": "bytes32"
        },
        {
          "internalType": "uint256",
          "name": "score",
          "type": "uint256"
        },
        {
          "internalType": "uint256",
          "name": "supply_score",
          "type": "uint256"
        },
        {
          "internalType": "uint256",
          "name": "value_score",
          "type": "uint256"
        },
        {
          "internalType": "uint256",
          "name": "repayment_score",
          "type": "uint256"
        },
        {
          "internalType": "uint256",
          "name": "debt_score",
          "type": "uint256"
        },
        {
          "internalType": "address",
          "name": "account",
          "type": "address"
        }
      ],
      "name": "fulfillScore",
      "outputs": [],
      "stateMutability": "nonpayable",
      "type": "function"
    },
    {
      "inputs": [
        {
          "internalType": "address",
          "name": "_newOracle",
          "type": "address"
        }
      ],
      "name": "updateOracle",
      "outputs": [],
      "stateMutability": "nonpayable",
      "type": "function"
    },
    {
      "inputs": [
        {
          "internalType": "bytes32",
          "name": "_newJobSpec",
          "type": "bytes32"
        }
      ],
      "name": "updateJobSpec",
      "outputs": [],
      "stateMutability": "nonpayable",
      "type": "function"
    },
    {
      "inputs": [],
      "name": "withdrawScore",
      "outputs": [],
      "stateMutability": "nonpayable",
      "type": "function"
    },
    {
      "inputs": [
        {
          "internalType": "bytes32",
          "name": "_requestId",
          "type": "bytes32"
        },
        {
          "internalType": "uint256",
          "name": "_payment",
          "type": "uint256"
        },
        {
          "internalType": "bytes4",
          "name": "_callbackFunctionId",
          "type": "bytes4"
        },
        {
          "internalType": "uint256",
          "name": "_expiration",
          "type": "uint256"
        }
      ],
      "name": "cancelRequest",
      "outputs": [],
      "stateMutability": "nonpayable",
      "type": "function"
    },
    {
      "inputs": [
        {
          "internalType": "string",
          "name": "source",
          "type": "string"
        }
      ],
      "name": "stringToBytes32",
      "outputs": [
        {
          "internalType": "bytes32",
          "name": "result",
          "type": "bytes32"
        }
      ],
      "stateMutability": "pure",
      "type": "function",
      "constant": true
    }
  ],
  "bytecode": "0x608060405260016004553480156200001657600080fd5b5060405162002b6138038062002b6183398181016040528101906200003c9190620003ce565b338060008073ffffffffffffffffffffffffffffffffffffffff168273ffffffffffffffffffffffffffffffffffffffff161415620000b2576040517f08c379a0000000000000000000000000000000000000000000000000000000008152600401620000a9906200048b565b60405180910390fd5b81600660006101000a81548173ffffffffffffffffffffffffffffffffffffffff021916908373ffffffffffffffffffffffffffffffffffffffff160217905550600073ffffffffffffffffffffffffffffffffffffffff168173ffffffffffffffffffffffffffffffffffffffff16146200013a5762000139816200016f60201b60201c565b5b5050506200014e83620002a160201b60201c565b6200015f82620002e560201b60201c565b806009819055505050506200051f565b3373ffffffffffffffffffffffffffffffffffffffff168173ffffffffffffffffffffffffffffffffffffffff161415620001e1576040517f08c379a0000000000000000000000000000000000000000000000000000000008152600401620001d890620004fd565b60405180910390fd5b80600760006101000a81548173ffffffffffffffffffffffffffffffffffffffff021916908373ffffffffffffffffffffffffffffffffffffffff1602179055508073ffffffffffffffffffffffffffffffffffffffff16600660009054906101000a900473ffffffffffffffffffffffffffffffffffffffff1673ffffffffffffffffffffffffffffffffffffffff167fed8889f560326eb138920d842192f0eb3dd22b4f139c87a2c57538e05bae127860405160405180910390a350565b80600260006101000a81548173ffffffffffffffffffffffffffffffffffffffff021916908373ffffffffffffffffffffffffffffffffffffffff16021790555050565b80600360006101000a81548173ffffffffffffffffffffffffffffffffffffffff021916908373ffffffffffffffffffffffffffffffffffffffff16021790555050565b600080fd5b600073ffffffffffffffffffffffffffffffffffffffff82169050919050565b60006200035b826200032e565b9050919050565b6200036d816200034e565b81146200037957600080fd5b50565b6000815190506200038d8162000362565b92915050565b6000819050919050565b620003a88162000393565b8114620003b457600080fd5b50565b600081519050620003c8816200039d565b92915050565b600080600060608486031215620003ea57620003e962000329565b5b6000620003fa868287016200037c565b93505060206200040d868287016200037c565b92505060406200042086828701620003b7565b9150509250925092565b600082825260208201905092915050565b7f43616e6e6f7420736574206f776e657220746f207a65726f0000000000000000600082015250565b6000620004736018836200042a565b915062000480826200043b565b602082019050919050565b60006020820190508181036000830152620004a68162000464565b9050919050565b7f43616e6e6f74207472616e7366657220746f2073656c66000000000000000000600082015250565b6000620004e56017836200042a565b9150620004f282620004ad565b602082019050919050565b600060208201905081810360008301526200051881620004d6565b9050919050565b612632806200052f6000396000f3fe608060405234801561001057600080fd5b50600436106100b45760003560e01c80638da5cb5b116100715780638da5cb5b146101575780638e4dd57314610175578063b9a349a714610191578063cfb51928146101ad578063ec65d0f8146101dd578063f2fde38b146101f9576100b4565b806307db2640146100b95780631cb44dfc146100d7578063230ba5b5146100f357806376dd110f146100fd57806379ba509714610131578063863002571461013b575b600080fd5b6100c1610215565b6040516100ce919061163b565b60405180910390f35b6100f160048036038101906100ec91906116c8565b61021b565b005b6100fb61022f565b005b610117600480360381019061011291906116c8565b61037c565b60405161012895949392919061170e565b60405180910390f35b6101396103b2565b005b610155600480360381019061015091906117b9565b610549565b005b61015f61071f565b60405161016c919061186a565b60405180910390f35b61018f600480360381019061018a9190611885565b610749565b005b6101ab60048036038101906101a691906116c8565b61075b565b005b6101c760048036038101906101c291906119f8565b6107e8565b6040516101d4919061163b565b60405180910390f35b6101f760048036038101906101f29190611a99565b610812565b005b610213600480360381019061020e91906116c8565b61082c565b005b60095481565b610223610840565b61022c816108d2565b50565b610237610840565b6000610241610916565b90508073ffffffffffffffffffffffffffffffffffffffff1663a9059cbb338373ffffffffffffffffffffffffffffffffffffffff166370a08231306040518263ffffffff1660e01b8152600401610299919061186a565b602060405180830381865afa1580156102b6573d6000803e3d6000fd5b505050506040513d601f19601f820116820180604052508101906102da9190611b15565b6040518363ffffffff1660e01b81526004016102f7929190611b42565b6020604051808303816000875af1158015610316573d6000803e3d6000fd5b505050506040513d601f19601f8201168201806040525081019061033a9190611ba3565b610379576040517f08c379a000000000000000000000000000000000000000000000000000000000815260040161037090611c2d565b60405180910390fd5b50565b60086020528060005260406000206000915090508060000154908060010154908060020154908060030154908060040154905085565b600760009054906101000a900473ffffffffffffffffffffffffffffffffffffffff1673ffffffffffffffffffffffffffffffffffffffff163373ffffffffffffffffffffffffffffffffffffffff1614610442576040517f08c379a000000000000000000000000000000000000000000000000000000000815260040161043990611c99565b60405180910390fd5b6000600660009054906101000a900473ffffffffffffffffffffffffffffffffffffffff16905033600660006101000a81548173ffffffffffffffffffffffffffffffffffffffff021916908373ffffffffffffffffffffffffffffffffffffffff1602179055506000600760006101000a81548173ffffffffffffffffffffffffffffffffffffffff021916908373ffffffffffffffffffffffffffffffffffffffff1602179055503373ffffffffffffffffffffffffffffffffffffffff168173ffffffffffffffffffffffffffffffffffffffff167f8be0079c531659141344cd1fd0a4f28419497f9722a3daafe3b4186f6b6457e060405160405180910390a350565b866005600082815260200190815260200160002060009054906101000a900473ffffffffffffffffffffffffffffffffffffffff1673ffffffffffffffffffffffffffffffffffffffff163373ffffffffffffffffffffffffffffffffffffffff16146105eb576040517f08c379a00000000000000000000000000000000000000000000000000000000081526004016105e290611d2b565b60405180910390fd5b6005600082815260200190815260200160002060006101000a81549073ffffffffffffffffffffffffffffffffffffffff0219169055807f7cc135e0cebb02c3480ae5d74d377283180a2601f8f644edf7987b009316c63a60405160405180910390a28173ffffffffffffffffffffffffffffffffffffffff1687897f8e5a3e390a3622f58716ef3492543d9382d2de4e2bd888711b16b8abeb1023348989898960405161069c9493929190611d4b565b60405180910390a46000600860008473ffffffffffffffffffffffffffffffffffffffff1673ffffffffffffffffffffffffffffffffffffffff1681526020019081526020016000209050878160000181905550868160010181905550858160020181905550848160040181905550838160030181905550505050505050505050565b6000600660009054906101000a900473ffffffffffffffffffffffffffffffffffffffff16905090565b610751610840565b8060098190555050565b600061077160095430638630025760e01b610940565b90506107c56040518060400160405280600781526020017f61646472657373000000000000000000000000000000000000000000000000008152506107b584610971565b83610b349092919063ffffffff16565b6107e381670de0b6b3a764000060016107de9190611dbf565b610b67565b505050565b600080829050600081511415610804576000801b91505061080d565b60208301519150505b919050565b61081a610840565b61082684848484610b9e565b50505050565b610834610840565b61083d81610cb1565b50565b600660009054906101000a900473ffffffffffffffffffffffffffffffffffffffff1673ffffffffffffffffffffffffffffffffffffffff163373ffffffffffffffffffffffffffffffffffffffff16146108d0576040517f08c379a00000000000000000000000000000000000000000000000000000000081526004016108c790611e65565b60405180910390fd5b565b80600360006101000a81548173ffffffffffffffffffffffffffffffffffffffff021916908373ffffffffffffffffffffffffffffffffffffffff16021790555050565b6000600260009054906101000a900473ffffffffffffffffffffffffffffffffffffffff16905090565b61094861159b565b61095061159b565b61096785858584610de0909392919063ffffffff16565b9150509392505050565b60606000602867ffffffffffffffff8111156109905761098f6118cd565b5b6040519080825280601f01601f1916602001820160405280156109c25781602001600182028036833780820191505090505b50905060005b6014811015610b2a5760008160136109e09190611e85565b60086109ec9190611dbf565b60026109f89190611fec565b8573ffffffffffffffffffffffffffffffffffffffff16610a199190612066565b60f81b9050600060108260f81c610a3091906120a4565b60f81b905060008160f81c6010610a4791906120d5565b8360f81c610a559190612110565b60f81b9050610a6382610e90565b85856002610a719190611dbf565b81518110610a8257610a81612144565b5b60200101907effffffffffffffffffffffffffffffffffffffffffffffffffffffffffffff1916908160001a905350610aba81610e90565b856001866002610aca9190611dbf565b610ad49190612173565b81518110610ae557610ae4612144565b5b60200101907effffffffffffffffffffffffffffffffffffffffffffffffffffffffffffff1916908160001a9053505050508080610b22906121c9565b9150506109c8565b5080915050919050565b610b4b828460800151610ed690919063ffffffff16565b610b62818460800151610ed690919063ffffffff16565b505050565b6000610b96600360009054906101000a900473ffffffffffffffffffffffffffffffffffffffff168484610efb565b905092915050565b60006005600086815260200190815260200160002060009054906101000a900473ffffffffffffffffffffffffffffffffffffffff1690506005600086815260200190815260200160002060006101000a81549073ffffffffffffffffffffffffffffffffffffffff0219169055847fe1fe3afa0f7f761ff0a8b89086790efd5140d2907ebd5b7ff6bfcb5e075fd4c560405160405180910390a28073ffffffffffffffffffffffffffffffffffffffff16636ee4d553868686866040518563ffffffff1660e01b8152600401610c789493929190612221565b600060405180830381600087803b158015610c9257600080fd5b505af1158015610ca6573d6000803e3d6000fd5b505050505050505050565b3373ffffffffffffffffffffffffffffffffffffffff168173ffffffffffffffffffffffffffffffffffffffff161415610d20576040517f08c379a0000000000000000000000000000000000000000000000000000000008152600401610d17906122b2565b60405180910390fd5b80600760006101000a81548173ffffffffffffffffffffffffffffffffffffffff021916908373ffffffffffffffffffffffffffffffffffffffff1602179055508073ffffffffffffffffffffffffffffffffffffffff16600660009054906101000a900473ffffffffffffffffffffffffffffffffffffffff1673ffffffffffffffffffffffffffffffffffffffff167fed8889f560326eb138920d842192f0eb3dd22b4f139c87a2c57538e05bae127860405160405180910390a350565b610de861159b565b610df88560800151610100610f1b565b508385600001818152505082856020019073ffffffffffffffffffffffffffffffffffffffff16908173ffffffffffffffffffffffffffffffffffffffff16815250508185604001907bffffffffffffffffffffffffffffffffffffffffffffffffffffffff191690817bffffffffffffffffffffffffffffffffffffffffffffffffffffffff191681525050849050949350505050565b6000600a8260f81c60ff161015610ebb5760308260f81c610eb191906122d2565b60f81b9050610ed1565b60578260f81c610ecb91906122d2565b60f81b90505b919050565b610ee38260038351610f85565b610ef681836110ca90919063ffffffff16565b505050565b6000610f128484846001634042994660e01b6110ec565b90509392505050565b610f23611608565b6000602083610f329190612309565b14610f5e57602082610f449190612309565b6020610f509190611e85565b82610f5b9190612173565b91505b81836020018181525050604051808452600081528281016020016040525082905092915050565b60178111610fb257610fac8160058460ff16901b60ff16178461134590919063ffffffff16565b506110c5565b60ff8111610ff457610fd7601860058460ff16901b178461134590919063ffffffff16565b50610fee816001856113659092919063ffffffff16565b506110c4565b61ffff81116110375761101a601960058460ff16901b178461134590919063ffffffff16565b50611031816002856113659092919063ffffffff16565b506110c3565b63ffffffff811161107c5761105f601a60058460ff16901b178461134590919063ffffffff16565b50611076816004856113659092919063ffffffff16565b506110c2565b67ffffffffffffffff81116110c1576110a8601b60058460ff16901b178461134590919063ffffffff16565b506110bf816008856113659092919063ffffffff16565b505b5b5b5b5b505050565b6110d2611608565b6110e483846000015151848551611387565b905092915050565b6000306004546040516020016111039291906123f3565b604051602081830303815290604052805190602001209050600454856060018181525050856005600083815260200190815260200160002060006101000a81548173ffffffffffffffffffffffffffffffffffffffff021916908373ffffffffffffffffffffffffffffffffffffffff160217905550807fb5e6e01e79f91267dc17b4e6314d5d4d03593d2ceee0fbb452b750bd70ea5af960405160405180910390a2600082600080886000015189602001518a604001518b606001518a8d60800151600001516040516024016111e19897969594939291906124a7565b604051602081830303815290604052907bffffffffffffffffffffffffffffffffffffffffffffffffffffffff19166020820180517bffffffffffffffffffffffffffffffffffffffffffffffffffffffff83818316178352505050509050600260009054906101000a900473ffffffffffffffffffffffffffffffffffffffff1673ffffffffffffffffffffffffffffffffffffffff16634000aea08887846040518463ffffffff1660e01b815260040161129f9392919061252c565b6020604051808303816000875af11580156112be573d6000803e3d6000fd5b505050506040513d601f19601f820116820180604052508101906112e29190611ba3565b611321576040517f08c379a0000000000000000000000000000000000000000000000000000000008152600401611318906125dc565b60405180910390fd5b6001600460008282546113349190612173565b925050819055505095945050505050565b61134d611608565b61135d8384600001515184611476565b905092915050565b61136d611608565b61137e8485600001515185856114cd565b90509392505050565b61138f611608565b825182111561139d57600080fd5b846020015182856113ae9190612173565b11156113e3576113e28560026113d3886020015188876113ce9190612173565b61155b565b6113dd9190611dbf565b611577565b5b6000808651805187602083010193508088870111156114025787860182525b60208701925050505b6020841061144957805182526020826114249190612173565b91506020816114339190612173565b90506020846114429190611e85565b935061140b565b60006001856020036101000a03905080198251168184511681811785525050508692505050949350505050565b61147e611608565b836020015183106114a4576114a3846002866020015161149e9190611dbf565b611577565b5b83518051602085830101848153818614156114c0576001820183525b5050508390509392505050565b6114d5611608565b846020015184836114e69190612173565b111561150e5761150d85600286856114fe9190612173565b6115089190611dbf565b611577565b5b60006001836101006115209190611fec565b61152a9190611e85565b9050855183868201018583198251161781528151858801111561154d5784870182525b505085915050949350505050565b60008183111561156d57829050611571565b8190505b92915050565b60008260000151905061158a8383610f1b565b5061159583826110ca565b50505050565b6040518060a0016040528060008019168152602001600073ffffffffffffffffffffffffffffffffffffffff16815260200160007bffffffffffffffffffffffffffffffffffffffffffffffffffffffff1916815260200160008152602001611602611608565b81525090565b604051806040016040528060608152602001600081525090565b6000819050919050565b61163581611622565b82525050565b6000602082019050611650600083018461162c565b92915050565b6000604051905090565b600080fd5b600080fd5b600073ffffffffffffffffffffffffffffffffffffffff82169050919050565b60006116958261166a565b9050919050565b6116a58161168a565b81146116b057600080fd5b50565b6000813590506116c28161169c565b92915050565b6000602082840312156116de576116dd611660565b5b60006116ec848285016116b3565b91505092915050565b6000819050919050565b611708816116f5565b82525050565b600060a08201905061172360008301886116ff565b61173060208301876116ff565b61173d60408301866116ff565b61174a60608301856116ff565b61175760808301846116ff565b9695505050505050565b61176a81611622565b811461177557600080fd5b50565b60008135905061178781611761565b92915050565b611796816116f5565b81146117a157600080fd5b50565b6000813590506117b38161178d565b92915050565b600080600080600080600060e0888a0312156117d8576117d7611660565b5b60006117e68a828b01611778565b97505060206117f78a828b016117a4565b96505060406118088a828b016117a4565b95505060606118198a828b016117a4565b945050608061182a8a828b016117a4565b93505060a061183b8a828b016117a4565b92505060c061184c8a828b016116b3565b91505092959891949750929550565b6118648161168a565b82525050565b600060208201905061187f600083018461185b565b92915050565b60006020828403121561189b5761189a611660565b5b60006118a984828501611778565b91505092915050565b600080fd5b600080fd5b6000601f19601f8301169050919050565b7f4e487b7100000000000000000000000000000000000000000000000000000000600052604160045260246000fd5b611905826118bc565b810181811067ffffffffffffffff82111715611924576119236118cd565b5b80604052505050565b6000611937611656565b905061194382826118fc565b919050565b600067ffffffffffffffff821115611963576119626118cd565b5b61196c826118bc565b9050602081019050919050565b82818337600083830152505050565b600061199b61199684611948565b61192d565b9050828152602081018484840111156119b7576119b66118b7565b5b6119c2848285611979565b509392505050565b600082601f8301126119df576119de6118b2565b5b81356119ef848260208601611988565b91505092915050565b600060208284031215611a0e57611a0d611660565b5b600082013567ffffffffffffffff811115611a2c57611a2b611665565b5b611a38848285016119ca565b91505092915050565b60007fffffffff0000000000000000000000000000000000000000000000000000000082169050919050565b611a7681611a41565b8114611a8157600080fd5b50565b600081359050611a9381611a6d565b92915050565b60008060008060808587031215611ab357611ab2611660565b5b6000611ac187828801611778565b9450506020611ad2878288016117a4565b9350506040611ae387828801611a84565b9250506060611af4878288016117a4565b91505092959194509250565b600081519050611b0f8161178d565b92915050565b600060208284031215611b2b57611b2a611660565b5b6000611b3984828501611b00565b91505092915050565b6000604082019050611b57600083018561185b565b611b6460208301846116ff565b9392505050565b60008115159050919050565b611b8081611b6b565b8114611b8b57600080fd5b50565b600081519050611b9d81611b77565b92915050565b600060208284031215611bb957611bb8611660565b5b6000611bc784828501611b8e565b91505092915050565b600082825260208201905092915050565b7f556e61626c6520746f207472616e736665720000000000000000000000000000600082015250565b6000611c17601283611bd0565b9150611c2282611be1565b602082019050919050565b60006020820190508181036000830152611c4681611c0a565b9050919050565b7f4d7573742062652070726f706f736564206f776e657200000000000000000000600082015250565b6000611c83601683611bd0565b9150611c8e82611c4d565b602082019050919050565b60006020820190508181036000830152611cb281611c76565b9050919050565b7f536f75726365206d75737420626520746865206f7261636c65206f662074686560008201527f2072657175657374000000000000000000000000000000000000000000000000602082015250565b6000611d15602883611bd0565b9150611d2082611cb9565b604082019050919050565b60006020820190508181036000830152611d4481611d08565b9050919050565b6000608082019050611d6060008301876116ff565b611d6d60208301866116ff565b611d7a60408301856116ff565b611d8760608301846116ff565b95945050505050565b7f4e487b7100000000000000000000000000000000000000000000000000000000600052601160045260246000fd5b6000611dca826116f5565b9150611dd5836116f5565b9250817fffffffffffffffffffffffffffffffffffffffffffffffffffffffffffffffff0483118215151615611e0e57611e0d611d90565b5b828202905092915050565b7f4f6e6c792063616c6c61626c65206279206f776e657200000000000000000000600082015250565b6000611e4f601683611bd0565b9150611e5a82611e19565b602082019050919050565b60006020820190508181036000830152611e7e81611e42565b9050919050565b6000611e90826116f5565b9150611e9b836116f5565b925082821015611eae57611ead611d90565b5b828203905092915050565b60008160011c9050919050565b6000808291508390505b6001851115611f1057808604811115611eec57611eeb611d90565b5b6001851615611efb5780820291505b8081029050611f0985611eb9565b9450611ed0565b94509492505050565b600082611f295760019050611fe5565b81611f375760009050611fe5565b8160018114611f4d5760028114611f5757611f86565b6001915050611fe5565b60ff841115611f6957611f68611d90565b5b8360020a915084821115611f8057611f7f611d90565b5b50611fe5565b5060208310610133831016604e8410600b8410161715611fbb5782820a905083811115611fb657611fb5611d90565b5b611fe5565b611fc88484846001611ec6565b92509050818404811115611fdf57611fde611d90565b5b81810290505b9392505050565b6000611ff7826116f5565b9150612002836116f5565b925061202f7fffffffffffffffffffffffffffffffffffffffffffffffffffffffffffffffff8484611f19565b905092915050565b7f4e487b7100000000000000000000000000000000000000000000000000000000600052601260045260246000fd5b6000612071826116f5565b915061207c836116f5565b92508261208c5761208b612037565b5b828204905092915050565b600060ff82169050919050565b60006120af82612097565b91506120ba83612097565b9250826120ca576120c9612037565b5b828204905092915050565b60006120e082612097565b91506120eb83612097565b92508160ff048311821515161561210557612104611d90565b5b828202905092915050565b600061211b82612097565b915061212683612097565b92508282101561213957612138611d90565b5b828203905092915050565b7f4e487b7100000000000000000000000000000000000000000000000000000000600052603260045260246000fd5b600061217e826116f5565b9150612189836116f5565b9250827fffffffffffffffffffffffffffffffffffffffffffffffffffffffffffffffff038211156121be576121bd611d90565b5b828201905092915050565b60006121d4826116f5565b91507fffffffffffffffffffffffffffffffffffffffffffffffffffffffffffffffff82141561220757612206611d90565b5b600182019050919050565b61221b81611a41565b82525050565b6000608082019050612236600083018761162c565b61224360208301866116ff565b6122506040830185612212565b61225d60608301846116ff565b95945050505050565b7f43616e6e6f74207472616e7366657220746f2073656c66000000000000000000600082015250565b600061229c601783611bd0565b91506122a782612266565b602082019050919050565b600060208201905081810360008301526122cb8161228f565b9050919050565b60006122dd82612097565b91506122e883612097565b92508260ff038211156122fe576122fd611d90565b5b828201905092915050565b6000612314826116f5565b915061231f836116f5565b92508261232f5761232e612037565b5b828206905092915050565b6000819050919050565b600061235f61235a6123558461166a565b61233a565b61166a565b9050919050565b600061237182612344565b9050919050565b600061238382612366565b9050919050565b60008160601b9050919050565b60006123a28261238a565b9050919050565b60006123b482612397565b9050919050565b6123cc6123c782612378565b6123a9565b82525050565b6000819050919050565b6123ed6123e8826116f5565b6123d2565b82525050565b60006123ff82856123bb565b60148201915061240f82846123dc565b6020820191508190509392505050565b600081519050919050565b600082825260208201905092915050565b60005b8381101561245957808201518184015260208101905061243e565b83811115612468576000848401525b50505050565b60006124798261241f565b612483818561242a565b935061249381856020860161243b565b61249c816118bc565b840191505092915050565b6000610100820190506124bd600083018b61185b565b6124ca602083018a6116ff565b6124d7604083018961162c565b6124e4606083018861185b565b6124f16080830187612212565b6124fe60a08301866116ff565b61250b60c08301856116ff565b81810360e083015261251d818461246e565b90509998505050505050505050565b6000606082019050612541600083018661185b565b61254e60208301856116ff565b8181036040830152612560818461246e565b9050949350505050565b7f756e61626c6520746f207472616e73666572416e6443616c6c20746f206f726160008201527f636c650000000000000000000000000000000000000000000000000000000000602082015250565b60006125c6602383611bd0565b91506125d18261256a565b604082019050919050565b600060208201905081810360008301526125f5816125b9565b905091905056fea2646970667358221220d7cf2df9ca1bfd098c027fa7dfef8a081e584b2282e7cbcda66302200c41029d64736f6c634300080b0033",
  "immutableReferences": {},
  "source": "// SPDX-License-Identifier: MIT\npragma solidity ^0.8.7;\n\nimport \"@chainlink/contracts/src/v0.8/ChainlinkClient.sol\";\nimport \"@chainlink/contracts/src/v0.8/ConfirmedOwner.sol\";\n\ncontract ChainScoreClient is ChainlinkClient, ConfirmedOwner {\n    using Chainlink for Chainlink.Request;\n\n    uint256 private constant ORACLE_PAYMENT = 1 * LINK_DIVISIBILITY;\n\n    struct Score {\n        uint score;\n        uint supply;\n        uint value;\n        uint debt;\n        uint repayment;\n    }\n\n    event ScoreRequestFulfilled(\n        bytes32 indexed requestId,\n        uint256 indexed score,\n        uint256 supply_score,\n        uint256 value_score,\n        uint256 repayment_score,\n        uint256 debt_score,\n        address indexed user\n    );\n\n    mapping(address => Score) public scores;\n\n    bytes32 public jobSpec;\n\n    constructor(address scoreToken, address oracle, bytes32 _jobSpec) ConfirmedOwner(msg.sender) {\n        setChainlinkToken(scoreToken);\n        setChainlinkOracle(oracle);\n        jobSpec = _jobSpec;\n    }\n\n    /** ============================= */\n    /** ============================= */\n\n    function requestScore(address _address)\n        public\n    {\n        Chainlink.Request memory req = buildChainlinkRequest(\n            jobSpec,\n            address(this),\n            this.fulfillScore.selector\n        );\n        req.add(\"address\", toAsciiString(_address));\n        sendChainlinkRequest(req, ORACLE_PAYMENT);\n    }\n\n    function fulfillScore(\n        bytes32 requestId,\n        uint256 score,\n        uint256 supply_score,\n        uint256 value_score,\n        uint256 repayment_score,\n        uint256 debt_score,\n        address account\n    ) public recordChainlinkFulfillment(requestId) {\n\n        emit ScoreRequestFulfilled(\n            requestId, \n            score, \n            supply_score, \n            value_score, \n            repayment_score, \n            debt_score, \n            account);\n\n        Score storage _score = scores[account];\n        _score.score = score;\n        _score.supply = supply_score;\n        _score.value = value_score;\n        _score.repayment = repayment_score;\n        _score.debt = debt_score;\n    }\n\n    /** ============================= */\n    /** ============================= */\n\n    function updateOracle(address _newOracle) external onlyOwner {\n        setChainlinkOracle(_newOracle);\n    }\n\n    function updateJobSpec(bytes32 _newJobSpec) external onlyOwner {\n        jobSpec = _newJobSpec;\n    }\n\n    function withdrawScore() public onlyOwner {\n        LinkTokenInterface link = LinkTokenInterface(chainlinkTokenAddress());\n        require(\n            link.transfer(msg.sender, link.balanceOf(address(this))),\n            \"Unable to transfer\"\n        );\n    }\n\n    function cancelRequest(\n        bytes32 _requestId,\n        uint256 _payment,\n        bytes4 _callbackFunctionId,\n        uint256 _expiration\n    ) public onlyOwner {\n        cancelChainlinkRequest(\n            _requestId,\n            _payment,\n            _callbackFunctionId,\n            _expiration\n        );\n    }\n\n    function stringToBytes32(string memory source)\n        public\n        pure\n        returns (bytes32 result)\n    {\n        bytes memory tempEmptyStringTest = bytes(source);\n        if (tempEmptyStringTest.length == 0) {\n            return 0x0;\n        }\n\n        assembly {\n            // solhint-disable-line no-inline-assembly\n            result := mload(add(source, 32))\n        }\n    }\n\n    function toAsciiString(address x) internal pure returns (string memory) {\n        bytes memory s = new bytes(40);\n        for (uint i = 0; i < 20; i++) {\n            bytes1 b = bytes1(uint8(uint(uint160(x)) / (2**(8*(19 - i)))));\n            bytes1 hi = bytes1(uint8(b) / 16);\n            bytes1 lo = bytes1(uint8(b) - 16 * uint8(hi));\n            s[2*i] = char(hi);\n            s[2*i+1] = char(lo);            \n        }\n        return string(s);\n    }\n\n    function char(bytes1 b) internal pure returns (bytes1 c) {\n        if (uint8(b) < 10) return bytes1(uint8(b) + 0x30);\n        else return bytes1(uint8(b) + 0x57);\n    }\n}\n",
  "sourcePath": "/Users/prasad/projects/chainscore/alpha/contracts/ChainScoreClient.sol",
  "compiler": {
    "name": "solc",
    "version": "0.8.11+commit.d7f03943.Emscripten.clang"
  },
  "schemaVersion": "3.4.3",
  "updatedAt": "2022-01-02T11:49:02.358Z",
  "networkType": "ethereum",
  "devdoc": {
    "kind": "dev",
    "methods": {},
    "version": 1
  },
  "userdoc": {
    "kind": "user",
    "methods": {
      "acceptOwnership()": {
        "notice": "Allows an ownership transfer to be completed by the recipient."
      },
      "owner()": {
        "notice": "Get the current owner"
      },
      "requestScore(address)": {
        "notice": "============================= "
      },
      "transferOwnership(address)": {
        "notice": "Allows an owner to begin transferring ownership to a new address, pending."
      },
      "updateOracle(address)": {
        "notice": "============================= "
      }
    },
    "version": 1
  }
}