{
  "contractName": "ChainScoreClient",
  "abi": [
    {
      "inputs": [
        {
          "internalType": "address",
          "name": "scoreToken",
          "type": "address"
        },
        {
          "internalType": "address",
          "name": "oracle",
          "type": "address"
        }
      ],
      "stateMutability": "nonpayable",
      "type": "constructor"
    },
    {
      "anonymous": false,
      "inputs": [
        {
          "indexed": true,
          "internalType": "bytes32",
          "name": "id",
          "type": "bytes32"
        }
      ],
      "name": "ChainlinkCancelled",
      "type": "event"
    },
    {
      "anonymous": false,
      "inputs": [
        {
          "indexed": true,
          "internalType": "bytes32",
          "name": "id",
          "type": "bytes32"
        }
      ],
      "name": "ChainlinkFulfilled",
      "type": "event"
    },
    {
      "anonymous": false,
      "inputs": [
        {
          "indexed": true,
          "internalType": "bytes32",
          "name": "id",
          "type": "bytes32"
        }
      ],
      "name": "ChainlinkRequested",
      "type": "event"
    },
    {
      "anonymous": false,
      "inputs": [
        {
          "indexed": true,
          "internalType": "address",
          "name": "from",
          "type": "address"
        },
        {
          "indexed": true,
          "internalType": "address",
          "name": "to",
          "type": "address"
        }
      ],
      "name": "OwnershipTransferRequested",
      "type": "event"
    },
    {
      "anonymous": false,
      "inputs": [
        {
          "indexed": true,
          "internalType": "address",
          "name": "from",
          "type": "address"
        },
        {
          "indexed": true,
          "internalType": "address",
          "name": "to",
          "type": "address"
        }
      ],
      "name": "OwnershipTransferred",
      "type": "event"
    },
    {
      "anonymous": false,
      "inputs": [
        {
          "indexed": true,
          "internalType": "bytes32",
          "name": "requestId",
          "type": "bytes32"
        },
        {
          "indexed": true,
          "internalType": "uint256",
          "name": "score",
          "type": "uint256"
        },
        {
          "indexed": false,
          "internalType": "uint256",
          "name": "supply_score",
          "type": "uint256"
        },
        {
          "indexed": false,
          "internalType": "uint256",
          "name": "value_score",
          "type": "uint256"
        },
        {
          "indexed": false,
          "internalType": "uint256",
          "name": "repayment_score",
          "type": "uint256"
        },
        {
          "indexed": false,
          "internalType": "uint256",
          "name": "debt_score",
          "type": "uint256"
        },
        {
          "indexed": true,
          "internalType": "string",
          "name": "user",
          "type": "string"
        }
      ],
      "name": "ScoreRequestFulfilled",
      "type": "event"
    },
    {
      "inputs": [],
      "name": "acceptOwnership",
      "outputs": [],
      "stateMutability": "nonpayable",
      "type": "function"
    },
    {
      "inputs": [
        {
          "internalType": "string",
          "name": "",
          "type": "string"
        }
      ],
      "name": "debt_scores",
      "outputs": [
        {
          "internalType": "uint256",
          "name": "",
          "type": "uint256"
        }
      ],
      "stateMutability": "view",
      "type": "function"
    },
    {
      "inputs": [],
      "name": "owner",
      "outputs": [
        {
          "internalType": "address",
          "name": "",
          "type": "address"
        }
      ],
      "stateMutability": "view",
      "type": "function"
    },
    {
      "inputs": [
        {
          "internalType": "string",
          "name": "",
          "type": "string"
        }
      ],
      "name": "repayment_scores",
      "outputs": [
        {
          "internalType": "uint256",
          "name": "",
          "type": "uint256"
        }
      ],
      "stateMutability": "view",
      "type": "function"
    },
    {
      "inputs": [
        {
          "internalType": "string",
          "name": "",
          "type": "string"
        }
      ],
      "name": "scores",
      "outputs": [
        {
          "internalType": "uint256",
          "name": "",
          "type": "uint256"
        }
      ],
      "stateMutability": "view",
      "type": "function"
    },
    {
      "inputs": [
        {
          "internalType": "string",
          "name": "",
          "type": "string"
        }
      ],
      "name": "supply_scores",
      "outputs": [
        {
          "internalType": "uint256",
          "name": "",
          "type": "uint256"
        }
      ],
      "stateMutability": "view",
      "type": "function"
    },
    {
      "inputs": [
        {
          "internalType": "address",
          "name": "to",
          "type": "address"
        }
      ],
      "name": "transferOwnership",
      "outputs": [],
      "stateMutability": "nonpayable",
      "type": "function"
    },
    {
      "inputs": [
        {
          "internalType": "string",
          "name": "",
          "type": "string"
        }
      ],
      "name": "value_scores",
      "outputs": [
        {
          "internalType": "uint256",
          "name": "",
          "type": "uint256"
        }
      ],
      "stateMutability": "view",
      "type": "function"
    },
    {
      "inputs": [
        {
          "internalType": "string",
          "name": "_address",
          "type": "string"
        },
        {
          "internalType": "string",
          "name": "_jobId",
          "type": "string"
        }
      ],
      "name": "requestScore",
      "outputs": [],
      "stateMutability": "nonpayable",
      "type": "function"
    },
    {
      "inputs": [
        {
          "internalType": "bytes32",
          "name": "requestId",
          "type": "bytes32"
        },
        {
          "internalType": "uint256",
          "name": "score",
          "type": "uint256"
        },
        {
          "internalType": "uint256",
          "name": "supply_score",
          "type": "uint256"
        },
        {
          "internalType": "uint256",
          "name": "value_score",
          "type": "uint256"
        },
        {
          "internalType": "uint256",
          "name": "repayment_score",
          "type": "uint256"
        },
        {
          "internalType": "uint256",
          "name": "debt_score",
          "type": "uint256"
        },
        {
          "internalType": "string",
          "name": "account",
          "type": "string"
        }
      ],
      "name": "fulfillScore",
      "outputs": [],
      "stateMutability": "nonpayable",
      "type": "function"
    },
    {
      "inputs": [
        {
          "internalType": "address",
          "name": "_newOracle",
          "type": "address"
        }
      ],
      "name": "updateOracle",
      "outputs": [],
      "stateMutability": "nonpayable",
      "type": "function"
    },
    {
      "inputs": [
        {
          "internalType": "address",
          "name": "_newToken",
          "type": "address"
        }
      ],
      "name": "updateScoreToken",
      "outputs": [],
      "stateMutability": "nonpayable",
      "type": "function"
    },
    {
      "inputs": [],
      "name": "withdrawScore",
      "outputs": [],
      "stateMutability": "nonpayable",
      "type": "function"
    },
    {
      "inputs": [
        {
          "internalType": "bytes32",
          "name": "_requestId",
          "type": "bytes32"
        },
        {
          "internalType": "uint256",
          "name": "_payment",
          "type": "uint256"
        },
        {
          "internalType": "bytes4",
          "name": "_callbackFunctionId",
          "type": "bytes4"
        },
        {
          "internalType": "uint256",
          "name": "_expiration",
          "type": "uint256"
        }
      ],
      "name": "cancelRequest",
      "outputs": [],
      "stateMutability": "nonpayable",
      "type": "function"
    }
  ],
  "bytecode": "0x608060405260016004553480156200001657600080fd5b5060405162002d9138038062002d9183398181016040528101906200003c919062000338565b338060008073ffffffffffffffffffffffffffffffffffffffff168273ffffffffffffffffffffffffffffffffffffffff161415620000b2576040517f08c379a0000000000000000000000000000000000000000000000000000000008152600401620000a990620003cd565b60405180910390fd5b81600660006101000a81548173ffffffffffffffffffffffffffffffffffffffff021916908373ffffffffffffffffffffffffffffffffffffffff160217905550600073ffffffffffffffffffffffffffffffffffffffff168173ffffffffffffffffffffffffffffffffffffffff16146200013a5762000139816200016760201b60201c565b5b5050506200014e826200029960201b60201c565b6200015f81620002dd60201b60201c565b5050620004c7565b3373ffffffffffffffffffffffffffffffffffffffff168173ffffffffffffffffffffffffffffffffffffffff161415620001d9576040517f08c379a0000000000000000000000000000000000000000000000000000000008152600401620001d090620003ef565b60405180910390fd5b80600760006101000a81548173ffffffffffffffffffffffffffffffffffffffff021916908373ffffffffffffffffffffffffffffffffffffffff1602179055508073ffffffffffffffffffffffffffffffffffffffff16600660009054906101000a900473ffffffffffffffffffffffffffffffffffffffff1673ffffffffffffffffffffffffffffffffffffffff167fed8889f560326eb138920d842192f0eb3dd22b4f139c87a2c57538e05bae127860405160405180910390a350565b80600260006101000a81548173ffffffffffffffffffffffffffffffffffffffff021916908373ffffffffffffffffffffffffffffffffffffffff16021790555050565b80600360006101000a81548173ffffffffffffffffffffffffffffffffffffffff021916908373ffffffffffffffffffffffffffffffffffffffff16021790555050565b6000815190506200033281620004ad565b92915050565b6000806040838503121562000352576200035162000456565b5b6000620003628582860162000321565b9250506020620003758582860162000321565b9150509250929050565b60006200038e60188362000411565b91506200039b826200045b565b602082019050919050565b6000620003b560178362000411565b9150620003c28262000484565b602082019050919050565b60006020820190508181036000830152620003e8816200037f565b9050919050565b600060208201905081810360008301526200040a81620003a6565b9050919050565b600082825260208201905092915050565b60006200042f8262000436565b9050919050565b600073ffffffffffffffffffffffffffffffffffffffff82169050919050565b600080fd5b7f43616e6e6f7420736574206f776e657220746f207a65726f0000000000000000600082015250565b7f43616e6e6f74207472616e7366657220746f2073656c66000000000000000000600082015250565b620004b88162000422565b8114620004c457600080fd5b50565b6128ba80620004d76000396000f3fe608060405234801561001057600080fd5b50600436106100ea5760003560e01c806375157a331161008c5780638da5cb5b116100665780638da5cb5b14610233578063cd8e654314610251578063ec65d0f814610281578063f2fde38b1461029d576100ea565b806375157a33146101dd57806379ba50971461020d5780637be1803414610217576100ea565b806327e01dae116100c857806327e01dae146101455780633f3fcc43146101755780634cbc52a014610191578063742c5cba146101c1576100ea565b80630e0f060e146100ef5780631cb44dfc1461011f578063230ba5b51461013b575b600080fd5b61010960048036038101906101049190611b1a565b6102b9565b6040516101169190612042565b60405180910390f35b6101396004803603810190610134919061199b565b6102e7565b005b6101436102fb565b005b61015f600480360381019061015a9190611b1a565b610466565b60405161016c9190612042565b60405180910390f35b61018f600480360381019061018a9190611b63565b610494565b005b6101ab60048036038101906101a69190611b1a565b6105ef565b6040516101b89190612042565b60405180910390f35b6101db60048036038101906101d6919061199b565b61061d565b005b6101f760048036038101906101f29190611b1a565b610631565b6040516102049190612042565b60405180910390f35b61021561065f565b005b610231600480360381019061022c9190611a5c565b6107f6565b005b61023b610a09565b6040516102489190611e36565b60405180910390f35b61026b60048036038101906102669190611b1a565b610a33565b6040516102789190612042565b60405180910390f35b61029b600480360381019061029691906119f5565b610a61565b005b6102b760048036038101906102b2919061199b565b610a7b565b005b6009818051602081018201805184825260208301602085012081835280955050505050506000915090505481565b6102ef610a8f565b6102f881610b21565b50565b610303610a8f565b600061030d610b65565b90508073ffffffffffffffffffffffffffffffffffffffff1663a9059cbb338373ffffffffffffffffffffffffffffffffffffffff166370a08231306040518263ffffffff1660e01b81526004016103659190611e36565b60206040518083038186803b15801561037d57600080fd5b505afa158015610391573d6000803e3d6000fd5b505050506040513d601f19601f820116820180604052508101906103b59190611bdb565b6040518363ffffffff1660e01b81526004016103d2929190611e51565b602060405180830381600087803b1580156103ec57600080fd5b505af1158015610400573d6000803e3d6000fd5b505050506040513d601f19601f8201168201806040525081019061042491906119c8565b610463576040517f08c379a000000000000000000000000000000000000000000000000000000000815260040161045a90611fe2565b60405180910390fd5b50565b600b818051602081018201805184825260208301602085012081835280955050505050506000915090505481565b61049c610a8f565b60006104b86104aa83610b8f565b30637be1803460e01b610bb9565b90506000836040516020016104cd9190611e14565b6040516020818303038152906040529050600081905061052d6040518060400160405280600381526020017f67657400000000000000000000000000000000000000000000000000000000008152508285610bea9092919063ffffffff16565b6105776040518060400160405280600781526020017f61646472657373000000000000000000000000000000000000000000000000008152508685610bea9092919063ffffffff16565b6105c96040518060400160405280600581526020017f74696d6573000000000000000000000000000000000000000000000000000000815250670de0b6b3a764000085610c1d9092919063ffffffff16565b6105e783670de0b6b3a764000060016105e29190612302565b610c50565b505050505050565b600c818051602081018201805184825260208301602085012081835280955050505050506000915090505481565b610625610a8f565b61062e81610c87565b50565b600a818051602081018201805184825260208301602085012081835280955050505050506000915090505481565b600760009054906101000a900473ffffffffffffffffffffffffffffffffffffffff1673ffffffffffffffffffffffffffffffffffffffff163373ffffffffffffffffffffffffffffffffffffffff16146106ef576040517f08c379a00000000000000000000000000000000000000000000000000000000081526004016106e690611f82565b60405180910390fd5b6000600660009054906101000a900473ffffffffffffffffffffffffffffffffffffffff16905033600660006101000a81548173ffffffffffffffffffffffffffffffffffffffff021916908373ffffffffffffffffffffffffffffffffffffffff1602179055506000600760006101000a81548173ffffffffffffffffffffffffffffffffffffffff021916908373ffffffffffffffffffffffffffffffffffffffff1602179055503373ffffffffffffffffffffffffffffffffffffffff168173ffffffffffffffffffffffffffffffffffffffff167f8be0079c531659141344cd1fd0a4f28419497f9722a3daafe3b4186f6b6457e060405160405180910390a350565b866005600082815260200190815260200160002060009054906101000a900473ffffffffffffffffffffffffffffffffffffffff1673ffffffffffffffffffffffffffffffffffffffff163373ffffffffffffffffffffffffffffffffffffffff1614610898576040517f08c379a000000000000000000000000000000000000000000000000000000000815260040161088f90612022565b60405180910390fd5b6005600082815260200190815260200160002060006101000a81549073ffffffffffffffffffffffffffffffffffffffff0219169055807f7cc135e0cebb02c3480ae5d74d377283180a2601f8f644edf7987b009316c63a60405160405180910390a2816040516109099190611dfd565b604051809103902087897f7914b266055a2892bdf0251b7dc063d1ec1016ca08812778c46973a58fa9db7b89898989604051610948949392919061205d565b60405180910390a4866008836040516109619190611dfd565b908152602001604051809103902081905550856009836040516109849190611dfd565b90815260200160405180910390208190555084600a836040516109a79190611dfd565b90815260200160405180910390208190555083600b836040516109ca9190611dfd565b90815260200160405180910390208190555082600c836040516109ed9190611dfd565b9081526020016040518091039020819055505050505050505050565b6000600660009054906101000a900473ffffffffffffffffffffffffffffffffffffffff16905090565b6008818051602081018201805184825260208301602085012081835280955050505050506000915090505481565b610a69610a8f565b610a7584848484610ccb565b50505050565b610a83610a8f565b610a8c81610dde565b50565b600660009054906101000a900473ffffffffffffffffffffffffffffffffffffffff1673ffffffffffffffffffffffffffffffffffffffff163373ffffffffffffffffffffffffffffffffffffffff1614610b1f576040517f08c379a0000000000000000000000000000000000000000000000000000000008152600401610b1690611fc2565b60405180910390fd5b565b80600360006101000a81548173ffffffffffffffffffffffffffffffffffffffff021916908373ffffffffffffffffffffffffffffffffffffffff16021790555050565b6000600260009054906101000a900473ffffffffffffffffffffffffffffffffffffffff16905090565b600080829050600081511415610bab576000801b915050610bb4565b60208301519150505b919050565b610bc1611826565b610bc9611826565b610be085858584610f0d909392919063ffffffff16565b9150509392505050565b610c01828460800151610fbd90919063ffffffff16565b610c18818460800151610fbd90919063ffffffff16565b505050565b610c34828460800151610fbd90919063ffffffff16565b610c4b818460800151610fe290919063ffffffff16565b505050565b6000610c7f600360009054906101000a900473ffffffffffffffffffffffffffffffffffffffff16848461108f565b905092915050565b80600260006101000a81548173ffffffffffffffffffffffffffffffffffffffff021916908373ffffffffffffffffffffffffffffffffffffffff16021790555050565b60006005600086815260200190815260200160002060009054906101000a900473ffffffffffffffffffffffffffffffffffffffff1690506005600086815260200190815260200160002060006101000a81549073ffffffffffffffffffffffffffffffffffffffff0219169055847fe1fe3afa0f7f761ff0a8b89086790efd5140d2907ebd5b7ff6bfcb5e075fd4c560405160405180910390a28073ffffffffffffffffffffffffffffffffffffffff16636ee4d553868686866040518563ffffffff1660e01b8152600401610da59493929190611f3d565b600060405180830381600087803b158015610dbf57600080fd5b505af1158015610dd3573d6000803e3d6000fd5b505050505050505050565b3373ffffffffffffffffffffffffffffffffffffffff168173ffffffffffffffffffffffffffffffffffffffff161415610e4d576040517f08c379a0000000000000000000000000000000000000000000000000000000008152600401610e4490612002565b60405180910390fd5b80600760006101000a81548173ffffffffffffffffffffffffffffffffffffffff021916908373ffffffffffffffffffffffffffffffffffffffff1602179055508073ffffffffffffffffffffffffffffffffffffffff16600660009054906101000a900473ffffffffffffffffffffffffffffffffffffffff1673ffffffffffffffffffffffffffffffffffffffff167fed8889f560326eb138920d842192f0eb3dd22b4f139c87a2c57538e05bae127860405160405180910390a350565b610f15611826565b610f2585608001516101006110af565b508385600001818152505082856020019073ffffffffffffffffffffffffffffffffffffffff16908173ffffffffffffffffffffffffffffffffffffffff16815250508185604001907bffffffffffffffffffffffffffffffffffffffffffffffffffffffff191690817bffffffffffffffffffffffffffffffffffffffffffffffffffffffff191681525050849050949350505050565b610fca8260038351611119565b610fdd818361125e90919063ffffffff16565b505050565b7fffffffffffffffffffffffffffffffffffffffffffffffff0000000000000000811215611019576110148282611280565b61108b565b67ffffffffffffffff8113156110385761103382826112f7565b61108a565b600081126110515761104c82600083611119565b611089565b611088826001837fffffffffffffffffffffffffffffffffffffffffffffffffffffffffffffffff611083919061235c565b611119565b5b5b5b5050565b60006110a68484846002636de879d660e01b611343565b90509392505050565b6110b7611893565b60006020836110c69190612583565b146110f2576020826110d89190612583565b60206110e491906123f0565b826110ef919061213b565b91505b81836020018181525050604051808452600081528281016020016040525082905092915050565b60178111611146576111408160058460ff16901b60ff1617846115ab90919063ffffffff16565b50611259565b60ff81116111885761116b601860058460ff16901b17846115ab90919063ffffffff16565b50611182816001856115cb9092919063ffffffff16565b50611258565b61ffff81116111cb576111ae601960058460ff16901b17846115ab90919063ffffffff16565b506111c5816002856115cb9092919063ffffffff16565b50611257565b63ffffffff8111611210576111f3601a60058460ff16901b17846115ab90919063ffffffff16565b5061120a816004856115cb9092919063ffffffff16565b50611256565b67ffffffffffffffff81116112555761123c601b60058460ff16901b17846115ab90919063ffffffff16565b50611253816008856115cb9092919063ffffffff16565b505b5b5b5b5b505050565b611266611893565b611278838460000151518485516115ed565b905092915050565b61129e60036005600660ff16901b17836115ab90919063ffffffff16565b506112f382827fffffffffffffffffffffffffffffffffffffffffffffffffffffffffffffffff6112cf919061235c565b6040516020016112df9190612042565b6040516020818303038152906040526116dc565b5050565b61131560026005600660ff16901b17836115ab90919063ffffffff16565b5061133f828260405160200161132b9190612042565b6040516020818303038152906040526116dc565b5050565b60003060045460405160200161135a929190611dd1565b604051602081830303815290604052805190602001209050600454856060018181525050856005600083815260200190815260200160002060006101000a81548173ffffffffffffffffffffffffffffffffffffffff021916908373ffffffffffffffffffffffffffffffffffffffff160217905550807fb5e6e01e79f91267dc17b4e6314d5d4d03593d2ceee0fbb452b750bd70ea5af960405160405180910390a2600082600080886000015189602001518a604001518b606001518a8d6080015160000151604051602401611438989796959493929190611e7a565b604051602081830303815290604052907bffffffffffffffffffffffffffffffffffffffffffffffffffffffff19166020820180517bffffffffffffffffffffffffffffffffffffffffffffffffffffffff83818316178352505050509050600260009054906101000a900473ffffffffffffffffffffffffffffffffffffffff1673ffffffffffffffffffffffffffffffffffffffff16634000aea08887846040518463ffffffff1660e01b81526004016114f693929190611eff565b602060405180830381600087803b15801561151057600080fd5b505af1158015611524573d6000803e3d6000fd5b505050506040513d601f19601f8201168201806040525081019061154891906119c8565b611587576040517f08c379a000000000000000000000000000000000000000000000000000000000815260040161157e90611fa2565b60405180910390fd5b60016004600082825461159a919061213b565b925050819055505095945050505050565b6115b3611893565b6115c38384600001515184611701565b905092915050565b6115d3611893565b6115e4848560000151518585611758565b90509392505050565b6115f5611893565b825182111561160357600080fd5b84602001518285611614919061213b565b11156116495761164885600261163988602001518887611634919061213b565b6117e6565b6116439190612302565b611802565b5b6000808651805187602083010193508088870111156116685787860182525b60208701925050505b602084106116af578051825260208261168a919061213b565b9150602081611699919061213b565b90506020846116a891906123f0565b9350611671565b60006001856020036101000a03905080198251168184511681811785525050508692505050949350505050565b6116e98260028351611119565b6116fc818361125e90919063ffffffff16565b505050565b611709611893565b8360200151831061172f5761172e84600286602001516117299190612302565b611802565b5b835180516020858301018481538186141561174b576001820183525b5050508390509392505050565b611760611893565b84602001518483611771919061213b565b1115611799576117988560028685611789919061213b565b6117939190612302565b611802565b5b60006001836101006117ab91906121e4565b6117b591906123f0565b905085518386820101858319825116178152815185880111156117d85784870182525b505085915050949350505050565b6000818311156117f8578290506117fc565b8190505b92915050565b60008260000151905061181583836110af565b50611820838261125e565b50505050565b6040518060a0016040528060008019168152602001600073ffffffffffffffffffffffffffffffffffffffff16815260200160007bffffffffffffffffffffffffffffffffffffffffffffffffffffffff191681526020016000815260200161188d611893565b81525090565b604051806040016040528060608152602001600081525090565b60006118c06118bb846120c7565b6120a2565b9050828152602081018484840111156118dc576118db612646565b5b6118e78482856124e2565b509392505050565b6000813590506118fe81612811565b92915050565b60008151905061191381612828565b92915050565b6000813590506119288161283f565b92915050565b60008135905061193d81612856565b92915050565b600082601f83011261195857611957612641565b5b81356119688482602086016118ad565b91505092915050565b6000813590506119808161286d565b92915050565b6000815190506119958161286d565b92915050565b6000602082840312156119b1576119b0612650565b5b60006119bf848285016118ef565b91505092915050565b6000602082840312156119de576119dd612650565b5b60006119ec84828501611904565b91505092915050565b60008060008060808587031215611a0f57611a0e612650565b5b6000611a1d87828801611919565b9450506020611a2e87828801611971565b9350506040611a3f8782880161192e565b9250506060611a5087828801611971565b91505092959194509250565b600080600080600080600060e0888a031215611a7b57611a7a612650565b5b6000611a898a828b01611919565b9750506020611a9a8a828b01611971565b9650506040611aab8a828b01611971565b9550506060611abc8a828b01611971565b9450506080611acd8a828b01611971565b93505060a0611ade8a828b01611971565b92505060c088013567ffffffffffffffff811115611aff57611afe61264b565b5b611b0b8a828b01611943565b91505092959891949750929550565b600060208284031215611b3057611b2f612650565b5b600082013567ffffffffffffffff811115611b4e57611b4d61264b565b5b611b5a84828501611943565b91505092915050565b60008060408385031215611b7a57611b79612650565b5b600083013567ffffffffffffffff811115611b9857611b9761264b565b5b611ba485828601611943565b925050602083013567ffffffffffffffff811115611bc557611bc461264b565b5b611bd185828601611943565b9150509250929050565b600060208284031215611bf157611bf0612650565b5b6000611bff84828501611986565b91505092915050565b611c1181612424565b82525050565b611c2081612442565b82525050565b611c2f8161244c565b82525050565b6000611c40826120f8565b611c4a818561210e565b9350611c5a8185602086016124f1565b611c6381612655565b840191505092915050565b611c7f611c7a826124ac565b612555565b82525050565b6000611c9082612103565b611c9a8185612130565b9350611caa8185602086016124f1565b80840191505092915050565b6000611cc360168361211f565b9150611cce82612680565b602082019050919050565b6000611ce6602183612130565b9150611cf1826126a9565b602182019050919050565b6000611d0960238361211f565b9150611d14826126f8565b604082019050919050565b6000611d2c60168361211f565b9150611d3782612747565b602082019050919050565b6000611d4f60128361211f565b9150611d5a82612770565b602082019050919050565b6000611d7260178361211f565b9150611d7d82612799565b602082019050919050565b6000611d9560288361211f565b9150611da0826127c2565b604082019050919050565b611db4816124a2565b82525050565b611dcb611dc6826124a2565b612579565b82525050565b6000611ddd8285611c6e565b601482019150611ded8284611dba565b6020820191508190509392505050565b6000611e098284611c85565b915081905092915050565b6000611e1f82611cd9565b9150611e2b8284611c85565b915081905092915050565b6000602082019050611e4b6000830184611c08565b92915050565b6000604082019050611e666000830185611c08565b611e736020830184611dab565b9392505050565b600061010082019050611e90600083018b611c08565b611e9d602083018a611dab565b611eaa6040830189611c17565b611eb76060830188611c08565b611ec46080830187611c26565b611ed160a0830186611dab565b611ede60c0830185611dab565b81810360e0830152611ef08184611c35565b90509998505050505050505050565b6000606082019050611f146000830186611c08565b611f216020830185611dab565b8181036040830152611f338184611c35565b9050949350505050565b6000608082019050611f526000830187611c17565b611f5f6020830186611dab565b611f6c6040830185611c26565b611f796060830184611dab565b95945050505050565b60006020820190508181036000830152611f9b81611cb6565b9050919050565b60006020820190508181036000830152611fbb81611cfc565b9050919050565b60006020820190508181036000830152611fdb81611d1f565b9050919050565b60006020820190508181036000830152611ffb81611d42565b9050919050565b6000602082019050818103600083015261201b81611d65565b9050919050565b6000602082019050818103600083015261203b81611d88565b9050919050565b60006020820190506120576000830184611dab565b92915050565b60006080820190506120726000830187611dab565b61207f6020830186611dab565b61208c6040830185611dab565b6120996060830184611dab565b95945050505050565b60006120ac6120bd565b90506120b88282612524565b919050565b6000604051905090565b600067ffffffffffffffff8211156120e2576120e1612612565b5b6120eb82612655565b9050602081019050919050565b600081519050919050565b600081519050919050565b600082825260208201905092915050565b600082825260208201905092915050565b600081905092915050565b6000612146826124a2565b9150612151836124a2565b9250827fffffffffffffffffffffffffffffffffffffffffffffffffffffffffffffffff03821115612186576121856125b4565b5b828201905092915050565b6000808291508390505b60018511156121db578086048111156121b7576121b66125b4565b5b60018516156121c65780820291505b80810290506121d485612673565b945061219b565b94509492505050565b60006121ef826124a2565b91506121fa836124a2565b92506122277fffffffffffffffffffffffffffffffffffffffffffffffffffffffffffffffff848461222f565b905092915050565b60008261223f57600190506122fb565b8161224d57600090506122fb565b8160018114612263576002811461226d5761229c565b60019150506122fb565b60ff84111561227f5761227e6125b4565b5b8360020a915084821115612296576122956125b4565b5b506122fb565b5060208310610133831016604e8410600b84101617156122d15782820a9050838111156122cc576122cb6125b4565b5b6122fb565b6122de8484846001612191565b925090508184048111156122f5576122f46125b4565b5b81810290505b9392505050565b600061230d826124a2565b9150612318836124a2565b9250817fffffffffffffffffffffffffffffffffffffffffffffffffffffffffffffffff0483118215151615612351576123506125b4565b5b828202905092915050565b600061236782612478565b915061237283612478565b9250827f8000000000000000000000000000000000000000000000000000000000000000018212600084121516156123ad576123ac6125b4565b5b827f7fffffffffffffffffffffffffffffffffffffffffffffffffffffffffffffff0182136000841216156123e5576123e46125b4565b5b828203905092915050565b60006123fb826124a2565b9150612406836124a2565b925082821015612419576124186125b4565b5b828203905092915050565b600061242f82612482565b9050919050565b60008115159050919050565b6000819050919050565b60007fffffffff0000000000000000000000000000000000000000000000000000000082169050919050565b6000819050919050565b600073ffffffffffffffffffffffffffffffffffffffff82169050919050565b6000819050919050565b60006124b7826124be565b9050919050565b60006124c9826124d0565b9050919050565b60006124db82612482565b9050919050565b82818337600083830152505050565b60005b8381101561250f5780820151818401526020810190506124f4565b8381111561251e576000848401525b50505050565b61252d82612655565b810181811067ffffffffffffffff8211171561254c5761254b612612565b5b80604052505050565b600061256082612567565b9050919050565b600061257282612666565b9050919050565b6000819050919050565b600061258e826124a2565b9150612599836124a2565b9250826125a9576125a86125e3565b5b828206905092915050565b7f4e487b7100000000000000000000000000000000000000000000000000000000600052601160045260246000fd5b7f4e487b7100000000000000000000000000000000000000000000000000000000600052601260045260246000fd5b7f4e487b7100000000000000000000000000000000000000000000000000000000600052604160045260246000fd5b600080fd5b600080fd5b600080fd5b600080fd5b6000601f19601f8301169050919050565b60008160601b9050919050565b60008160011c9050919050565b7f4d7573742062652070726f706f736564206f776e657200000000000000000000600082015250565b7f687474703a2f2f3136392e36302e3136372e3137383a333030312f73636f726560008201527f2f00000000000000000000000000000000000000000000000000000000000000602082015250565b7f756e61626c6520746f207472616e73666572416e6443616c6c20746f206f726160008201527f636c650000000000000000000000000000000000000000000000000000000000602082015250565b7f4f6e6c792063616c6c61626c65206279206f776e657200000000000000000000600082015250565b7f556e61626c6520746f207472616e736665720000000000000000000000000000600082015250565b7f43616e6e6f74207472616e7366657220746f2073656c66000000000000000000600082015250565b7f536f75726365206d75737420626520746865206f7261636c65206f662074686560008201527f2072657175657374000000000000000000000000000000000000000000000000602082015250565b61281a81612424565b811461282557600080fd5b50565b61283181612436565b811461283c57600080fd5b50565b61284881612442565b811461285357600080fd5b50565b61285f8161244c565b811461286a57600080fd5b50565b612876816124a2565b811461288157600080fd5b5056fea26469706673582212207e845b3343292c706964fe8eded0b643f5d04c036d78abc72dd333743ef3c00f64736f6c63430008070033",
  "immutableReferences": {},
  "source": "// SPDX-License-Identifier: MIT\npragma solidity ^0.8.7;\n\nimport \"@chainlink/contracts/src/v0.8/ChainlinkClient.sol\";\nimport \"@chainlink/contracts/src/v0.8/ConfirmedOwner.sol\";\n\ncontract ChainScoreClient is ChainlinkClient, ConfirmedOwner {\n    using Chainlink for Chainlink.Request;\n\n    uint256 private constant ORACLE_PAYMENT = 1 * LINK_DIVISIBILITY;\n\n    event ScoreRequestFulfilled(\n        bytes32 indexed requestId,\n        uint256 indexed score,\n        uint256 supply_score,\n        uint256 value_score,\n        uint256 repayment_score,\n        uint256 debt_score,\n        string indexed user\n    );\n\n    mapping(string => uint256) public scores;\n    mapping(string => uint256) public supply_scores;\n    mapping(string => uint256) public value_scores;\n    mapping(string => uint256) public repayment_scores;\n    mapping(string => uint256) public debt_scores;\n\n    constructor(address scoreToken, address oracle) ConfirmedOwner(msg.sender) {\n        setChainlinkToken(scoreToken);\n        setChainlinkOracle(oracle);\n    }\n\n    /** ============================= */\n    /** ============================= */\n\n    function requestScore(string memory _address, string memory _jobId)\n        public\n        onlyOwner\n    {\n        Chainlink.Request memory req = buildChainlinkRequest(\n            stringToBytes32(_jobId),\n            address(this),\n            this.fulfillScore.selector\n        );\n        bytes memory str = abi.encodePacked(\n            \"http://169.60.167.178:3001/score/\",\n            _address\n        );\n        string memory url = string(str);\n\n        req.add(\"get\", url);\n        req.add(\"address\", _address);\n        req.addInt(\"times\", 10**18);\n\n        requestOracleData(req, ORACLE_PAYMENT);\n    }\n\n    function fulfillScore(\n        bytes32 requestId,\n        uint256 score,\n        uint256 supply_score,\n        uint256 value_score,\n        uint256 repayment_score,\n        uint256 debt_score,\n        string memory account\n    ) public recordChainlinkFulfillment(requestId) {\n\n        emit ScoreRequestFulfilled(\n            requestId, \n            score, \n            supply_score, \n            value_score, \n            repayment_score, \n            debt_score, \n            account);\n\n        scores[account] = score;\n        supply_scores[account] = supply_score;\n        value_scores[account] = value_score;\n        repayment_scores[account] = repayment_score;\n        debt_scores[account] = debt_score;\n    }\n\n    /** ============================= */\n    /** ============================= */\n\n\n    function updateOracle(address _newOracle) external onlyOwner {\n        setChainlinkOracle(_newOracle);\n    }\n\n    function updateScoreToken(address _newToken) external onlyOwner {\n        setChainlinkToken(_newToken);\n    }\n\n    function withdrawScore() public onlyOwner {\n        LinkTokenInterface link = LinkTokenInterface(chainlinkTokenAddress());\n        require(\n            link.transfer(msg.sender, link.balanceOf(address(this))),\n            \"Unable to transfer\"\n        );\n    }\n\n    function cancelRequest(\n        bytes32 _requestId,\n        uint256 _payment,\n        bytes4 _callbackFunctionId,\n        uint256 _expiration\n    ) public onlyOwner {\n        cancelChainlinkRequest(\n            _requestId,\n            _payment,\n            _callbackFunctionId,\n            _expiration\n        );\n    }\n\n    function stringToBytes32(string memory source)\n        private\n        pure\n        returns (bytes32 result)\n    {\n        bytes memory tempEmptyStringTest = bytes(source);\n        if (tempEmptyStringTest.length == 0) {\n            return 0x0;\n        }\n\n        assembly {\n            // solhint-disable-line no-inline-assembly\n            result := mload(add(source, 32))\n        }\n    }\n}\n",
  "sourcePath": "/home/prasad/Desktop/chainscore/alpha/contracts/ChainScoreClient.sol",
  "compiler": {
    "name": "solc",
    "version": "0.8.7+commit.e28d00a7.Emscripten.clang"
  },
  "schemaVersion": "3.4.3",
  "updatedAt": "2021-12-06T11:57:23.902Z",
  "devdoc": {
    "kind": "dev",
    "methods": {},
    "version": 1
  },
  "userdoc": {
    "kind": "user",
    "methods": {
      "acceptOwnership()": {
        "notice": "Allows an ownership transfer to be completed by the recipient."
      },
      "owner()": {
        "notice": "Get the current owner"
      },
      "requestScore(string,string)": {
        "notice": "============================= "
      },
      "transferOwnership(address)": {
        "notice": "Allows an owner to begin transferring ownership to a new address, pending."
      },
      "updateOracle(address)": {
        "notice": "============================= "
      }
    },
    "version": 1
  }
}