{
  "contractName": "ChainScoreClient",
  "abi": [
    {
      "inputs": [
        {
          "internalType": "address",
          "name": "scoreToken",
          "type": "address"
        },
        {
          "internalType": "address",
          "name": "oracle",
          "type": "address"
        }
      ],
      "stateMutability": "nonpayable",
      "type": "constructor"
    },
    {
      "anonymous": false,
      "inputs": [
        {
          "indexed": true,
          "internalType": "bytes32",
          "name": "id",
          "type": "bytes32"
        }
      ],
      "name": "ChainlinkCancelled",
      "type": "event"
    },
    {
      "anonymous": false,
      "inputs": [
        {
          "indexed": true,
          "internalType": "bytes32",
          "name": "id",
          "type": "bytes32"
        }
      ],
      "name": "ChainlinkFulfilled",
      "type": "event"
    },
    {
      "anonymous": false,
      "inputs": [
        {
          "indexed": true,
          "internalType": "bytes32",
          "name": "id",
          "type": "bytes32"
        }
      ],
      "name": "ChainlinkRequested",
      "type": "event"
    },
    {
      "anonymous": false,
      "inputs": [
        {
          "indexed": true,
          "internalType": "address",
          "name": "from",
          "type": "address"
        },
        {
          "indexed": true,
          "internalType": "address",
          "name": "to",
          "type": "address"
        }
      ],
      "name": "OwnershipTransferRequested",
      "type": "event"
    },
    {
      "anonymous": false,
      "inputs": [
        {
          "indexed": true,
          "internalType": "address",
          "name": "from",
          "type": "address"
        },
        {
          "indexed": true,
          "internalType": "address",
          "name": "to",
          "type": "address"
        }
      ],
      "name": "OwnershipTransferred",
      "type": "event"
    },
    {
      "anonymous": false,
      "inputs": [
        {
          "indexed": true,
          "internalType": "bytes32",
          "name": "requestId",
          "type": "bytes32"
        },
        {
          "indexed": true,
          "internalType": "uint256",
          "name": "score",
          "type": "uint256"
        },
        {
          "indexed": true,
          "internalType": "string",
          "name": "user",
          "type": "string"
        }
      ],
      "name": "ScoreRequestFulfilled",
      "type": "event"
    },
    {
      "inputs": [],
      "name": "acceptOwnership",
      "outputs": [],
      "stateMutability": "nonpayable",
      "type": "function"
    },
    {
      "inputs": [
        {
          "internalType": "string",
          "name": "",
          "type": "string"
        }
      ],
      "name": "debt_scores",
      "outputs": [
        {
          "internalType": "uint256",
          "name": "",
          "type": "uint256"
        }
      ],
      "stateMutability": "view",
      "type": "function"
    },
    {
      "inputs": [],
      "name": "owner",
      "outputs": [
        {
          "internalType": "address",
          "name": "",
          "type": "address"
        }
      ],
      "stateMutability": "view",
      "type": "function"
    },
    {
      "inputs": [
        {
          "internalType": "string",
          "name": "",
          "type": "string"
        }
      ],
      "name": "repayment_scores",
      "outputs": [
        {
          "internalType": "uint256",
          "name": "",
          "type": "uint256"
        }
      ],
      "stateMutability": "view",
      "type": "function"
    },
    {
      "inputs": [
        {
          "internalType": "string",
          "name": "",
          "type": "string"
        }
      ],
      "name": "scores",
      "outputs": [
        {
          "internalType": "uint256",
          "name": "",
          "type": "uint256"
        }
      ],
      "stateMutability": "view",
      "type": "function"
    },
    {
      "inputs": [
        {
          "internalType": "string",
          "name": "",
          "type": "string"
        }
      ],
      "name": "supply_scores",
      "outputs": [
        {
          "internalType": "uint256",
          "name": "",
          "type": "uint256"
        }
      ],
      "stateMutability": "view",
      "type": "function"
    },
    {
      "inputs": [
        {
          "internalType": "address",
          "name": "to",
          "type": "address"
        }
      ],
      "name": "transferOwnership",
      "outputs": [],
      "stateMutability": "nonpayable",
      "type": "function"
    },
    {
      "inputs": [
        {
          "internalType": "string",
          "name": "",
          "type": "string"
        }
      ],
      "name": "value_scores",
      "outputs": [
        {
          "internalType": "uint256",
          "name": "",
          "type": "uint256"
        }
      ],
      "stateMutability": "view",
      "type": "function"
    },
    {
      "inputs": [
        {
          "internalType": "string",
          "name": "_address",
          "type": "string"
        },
        {
          "internalType": "string",
          "name": "_jobId",
          "type": "string"
        }
      ],
      "name": "requestScore",
      "outputs": [],
      "stateMutability": "nonpayable",
      "type": "function"
    },
    {
      "inputs": [
        {
          "internalType": "bytes32",
          "name": "requestId",
          "type": "bytes32"
        },
        {
          "internalType": "uint256",
          "name": "score",
          "type": "uint256"
        },
        {
          "internalType": "uint256",
          "name": "supply_score",
          "type": "uint256"
        },
        {
          "internalType": "uint256",
          "name": "value_score",
          "type": "uint256"
        },
        {
          "internalType": "uint256",
          "name": "repayment_score",
          "type": "uint256"
        },
        {
          "internalType": "uint256",
          "name": "debt_score",
          "type": "uint256"
        },
        {
          "internalType": "string",
          "name": "account",
          "type": "string"
        }
      ],
      "name": "fulfillScore",
      "outputs": [],
      "stateMutability": "nonpayable",
      "type": "function"
    },
    {
      "inputs": [
        {
          "internalType": "address",
          "name": "_newOracle",
          "type": "address"
        }
      ],
      "name": "updateOracle",
      "outputs": [],
      "stateMutability": "nonpayable",
      "type": "function"
    },
    {
      "inputs": [
        {
          "internalType": "address",
          "name": "_newToken",
          "type": "address"
        }
      ],
      "name": "updateScoreToken",
      "outputs": [],
      "stateMutability": "nonpayable",
      "type": "function"
    },
    {
      "inputs": [],
      "name": "withdrawScore",
      "outputs": [],
      "stateMutability": "nonpayable",
      "type": "function"
    },
    {
      "inputs": [
        {
          "internalType": "bytes32",
          "name": "_requestId",
          "type": "bytes32"
        },
        {
          "internalType": "uint256",
          "name": "_payment",
          "type": "uint256"
        },
        {
          "internalType": "bytes4",
          "name": "_callbackFunctionId",
          "type": "bytes4"
        },
        {
          "internalType": "uint256",
          "name": "_expiration",
          "type": "uint256"
        }
      ],
      "name": "cancelRequest",
      "outputs": [],
      "stateMutability": "nonpayable",
      "type": "function"
    }
  ],
  "bytecode": "0x608060405260016004553480156200001657600080fd5b5060405162002d3b38038062002d3b83398181016040528101906200003c919062000338565b338060008073ffffffffffffffffffffffffffffffffffffffff168273ffffffffffffffffffffffffffffffffffffffff161415620000b2576040517f08c379a0000000000000000000000000000000000000000000000000000000008152600401620000a990620003cd565b60405180910390fd5b81600660006101000a81548173ffffffffffffffffffffffffffffffffffffffff021916908373ffffffffffffffffffffffffffffffffffffffff160217905550600073ffffffffffffffffffffffffffffffffffffffff168173ffffffffffffffffffffffffffffffffffffffff16146200013a5762000139816200016760201b60201c565b5b5050506200014e826200029960201b60201c565b6200015f81620002dd60201b60201c565b5050620004c7565b3373ffffffffffffffffffffffffffffffffffffffff168173ffffffffffffffffffffffffffffffffffffffff161415620001d9576040517f08c379a0000000000000000000000000000000000000000000000000000000008152600401620001d090620003ef565b60405180910390fd5b80600760006101000a81548173ffffffffffffffffffffffffffffffffffffffff021916908373ffffffffffffffffffffffffffffffffffffffff1602179055508073ffffffffffffffffffffffffffffffffffffffff16600660009054906101000a900473ffffffffffffffffffffffffffffffffffffffff1673ffffffffffffffffffffffffffffffffffffffff167fed8889f560326eb138920d842192f0eb3dd22b4f139c87a2c57538e05bae127860405160405180910390a350565b80600260006101000a81548173ffffffffffffffffffffffffffffffffffffffff021916908373ffffffffffffffffffffffffffffffffffffffff16021790555050565b80600360006101000a81548173ffffffffffffffffffffffffffffffffffffffff021916908373ffffffffffffffffffffffffffffffffffffffff16021790555050565b6000815190506200033281620004ad565b92915050565b6000806040838503121562000352576200035162000456565b5b6000620003628582860162000321565b9250506020620003758582860162000321565b9150509250929050565b60006200038e60188362000411565b91506200039b826200045b565b602082019050919050565b6000620003b560178362000411565b9150620003c28262000484565b602082019050919050565b60006020820190508181036000830152620003e8816200037f565b9050919050565b600060208201905081810360008301526200040a81620003a6565b9050919050565b600082825260208201905092915050565b60006200042f8262000436565b9050919050565b600073ffffffffffffffffffffffffffffffffffffffff82169050919050565b600080fd5b7f43616e6e6f7420736574206f776e657220746f207a65726f0000000000000000600082015250565b7f43616e6e6f74207472616e7366657220746f2073656c66000000000000000000600082015250565b620004b88162000422565b8114620004c457600080fd5b50565b61286480620004d76000396000f3fe608060405234801561001057600080fd5b50600436106100ea5760003560e01c806375157a331161008c5780638da5cb5b116100665780638da5cb5b14610233578063cd8e654314610251578063ec65d0f814610281578063f2fde38b1461029d576100ea565b806375157a33146101dd57806379ba50971461020d5780637be1803414610217576100ea565b806327e01dae116100c857806327e01dae146101455780633f3fcc43146101755780634cbc52a014610191578063742c5cba146101c1576100ea565b80630e0f060e146100ef5780631cb44dfc1461011f578063230ba5b51461013b575b600080fd5b61010960048036038101906101049190611b09565b6102b9565b6040516101169190612031565b60405180910390f35b6101396004803603810190610134919061198a565b6102e7565b005b6101436102fb565b005b61015f600480360381019061015a9190611b09565b610466565b60405161016c9190612031565b60405180910390f35b61018f600480360381019061018a9190611b52565b610494565b005b6101ab60048036038101906101a69190611b09565b6105ef565b6040516101b89190612031565b60405180910390f35b6101db60048036038101906101d6919061198a565b61061d565b005b6101f760048036038101906101f29190611b09565b610631565b6040516102049190612031565b60405180910390f35b61021561065f565b005b610231600480360381019061022c9190611a4b565b6107f6565b005b61023b6109f8565b6040516102489190611e25565b60405180910390f35b61026b60048036038101906102669190611b09565b610a22565b6040516102789190612031565b60405180910390f35b61029b600480360381019061029691906119e4565b610a50565b005b6102b760048036038101906102b2919061198a565b610a6a565b005b6009818051602081018201805184825260208301602085012081835280955050505050506000915090505481565b6102ef610a7e565b6102f881610b10565b50565b610303610a7e565b600061030d610b54565b90508073ffffffffffffffffffffffffffffffffffffffff1663a9059cbb338373ffffffffffffffffffffffffffffffffffffffff166370a08231306040518263ffffffff1660e01b81526004016103659190611e25565b60206040518083038186803b15801561037d57600080fd5b505afa158015610391573d6000803e3d6000fd5b505050506040513d601f19601f820116820180604052508101906103b59190611bca565b6040518363ffffffff1660e01b81526004016103d2929190611e40565b602060405180830381600087803b1580156103ec57600080fd5b505af1158015610400573d6000803e3d6000fd5b505050506040513d601f19601f8201168201806040525081019061042491906119b7565b610463576040517f08c379a000000000000000000000000000000000000000000000000000000000815260040161045a90611fd1565b60405180910390fd5b50565b600b818051602081018201805184825260208301602085012081835280955050505050506000915090505481565b61049c610a7e565b60006104b86104aa83610b7e565b30637be1803460e01b610ba8565b90506000836040516020016104cd9190611e03565b6040516020818303038152906040529050600081905061052d6040518060400160405280600381526020017f67657400000000000000000000000000000000000000000000000000000000008152508285610bd99092919063ffffffff16565b6105776040518060400160405280600781526020017f61646472657373000000000000000000000000000000000000000000000000008152508685610bd99092919063ffffffff16565b6105c96040518060400160405280600581526020017f74696d6573000000000000000000000000000000000000000000000000000000815250670de0b6b3a764000085610c0c9092919063ffffffff16565b6105e783670de0b6b3a764000060016105e291906122ac565b610c3f565b505050505050565b600c818051602081018201805184825260208301602085012081835280955050505050506000915090505481565b610625610a7e565b61062e81610c76565b50565b600a818051602081018201805184825260208301602085012081835280955050505050506000915090505481565b600760009054906101000a900473ffffffffffffffffffffffffffffffffffffffff1673ffffffffffffffffffffffffffffffffffffffff163373ffffffffffffffffffffffffffffffffffffffff16146106ef576040517f08c379a00000000000000000000000000000000000000000000000000000000081526004016106e690611f71565b60405180910390fd5b6000600660009054906101000a900473ffffffffffffffffffffffffffffffffffffffff16905033600660006101000a81548173ffffffffffffffffffffffffffffffffffffffff021916908373ffffffffffffffffffffffffffffffffffffffff1602179055506000600760006101000a81548173ffffffffffffffffffffffffffffffffffffffff021916908373ffffffffffffffffffffffffffffffffffffffff1602179055503373ffffffffffffffffffffffffffffffffffffffff168173ffffffffffffffffffffffffffffffffffffffff167f8be0079c531659141344cd1fd0a4f28419497f9722a3daafe3b4186f6b6457e060405160405180910390a350565b866005600082815260200190815260200160002060009054906101000a900473ffffffffffffffffffffffffffffffffffffffff1673ffffffffffffffffffffffffffffffffffffffff163373ffffffffffffffffffffffffffffffffffffffff1614610898576040517f08c379a000000000000000000000000000000000000000000000000000000000815260040161088f90612011565b60405180910390fd5b6005600082815260200190815260200160002060006101000a81549073ffffffffffffffffffffffffffffffffffffffff0219169055807f7cc135e0cebb02c3480ae5d74d377283180a2601f8f644edf7987b009316c63a60405160405180910390a2816040516109099190611dec565b604051809103902087897f471e2f315cea0d399d87cbc5574a63517d2a252c4fe2a1049eceae5a16428db860405160405180910390a4866008836040516109509190611dec565b908152602001604051809103902081905550856009836040516109739190611dec565b90815260200160405180910390208190555084600a836040516109969190611dec565b90815260200160405180910390208190555083600b836040516109b99190611dec565b90815260200160405180910390208190555082600c836040516109dc9190611dec565b9081526020016040518091039020819055505050505050505050565b6000600660009054906101000a900473ffffffffffffffffffffffffffffffffffffffff16905090565b6008818051602081018201805184825260208301602085012081835280955050505050506000915090505481565b610a58610a7e565b610a6484848484610cba565b50505050565b610a72610a7e565b610a7b81610dcd565b50565b600660009054906101000a900473ffffffffffffffffffffffffffffffffffffffff1673ffffffffffffffffffffffffffffffffffffffff163373ffffffffffffffffffffffffffffffffffffffff1614610b0e576040517f08c379a0000000000000000000000000000000000000000000000000000000008152600401610b0590611fb1565b60405180910390fd5b565b80600360006101000a81548173ffffffffffffffffffffffffffffffffffffffff021916908373ffffffffffffffffffffffffffffffffffffffff16021790555050565b6000600260009054906101000a900473ffffffffffffffffffffffffffffffffffffffff16905090565b600080829050600081511415610b9a576000801b915050610ba3565b60208301519150505b919050565b610bb0611815565b610bb8611815565b610bcf85858584610efc909392919063ffffffff16565b9150509392505050565b610bf0828460800151610fac90919063ffffffff16565b610c07818460800151610fac90919063ffffffff16565b505050565b610c23828460800151610fac90919063ffffffff16565b610c3a818460800151610fd190919063ffffffff16565b505050565b6000610c6e600360009054906101000a900473ffffffffffffffffffffffffffffffffffffffff16848461107e565b905092915050565b80600260006101000a81548173ffffffffffffffffffffffffffffffffffffffff021916908373ffffffffffffffffffffffffffffffffffffffff16021790555050565b60006005600086815260200190815260200160002060009054906101000a900473ffffffffffffffffffffffffffffffffffffffff1690506005600086815260200190815260200160002060006101000a81549073ffffffffffffffffffffffffffffffffffffffff0219169055847fe1fe3afa0f7f761ff0a8b89086790efd5140d2907ebd5b7ff6bfcb5e075fd4c560405160405180910390a28073ffffffffffffffffffffffffffffffffffffffff16636ee4d553868686866040518563ffffffff1660e01b8152600401610d949493929190611f2c565b600060405180830381600087803b158015610dae57600080fd5b505af1158015610dc2573d6000803e3d6000fd5b505050505050505050565b3373ffffffffffffffffffffffffffffffffffffffff168173ffffffffffffffffffffffffffffffffffffffff161415610e3c576040517f08c379a0000000000000000000000000000000000000000000000000000000008152600401610e3390611ff1565b60405180910390fd5b80600760006101000a81548173ffffffffffffffffffffffffffffffffffffffff021916908373ffffffffffffffffffffffffffffffffffffffff1602179055508073ffffffffffffffffffffffffffffffffffffffff16600660009054906101000a900473ffffffffffffffffffffffffffffffffffffffff1673ffffffffffffffffffffffffffffffffffffffff167fed8889f560326eb138920d842192f0eb3dd22b4f139c87a2c57538e05bae127860405160405180910390a350565b610f04611815565b610f14856080015161010061109e565b508385600001818152505082856020019073ffffffffffffffffffffffffffffffffffffffff16908173ffffffffffffffffffffffffffffffffffffffff16815250508185604001907bffffffffffffffffffffffffffffffffffffffffffffffffffffffff191690817bffffffffffffffffffffffffffffffffffffffffffffffffffffffff191681525050849050949350505050565b610fb98260038351611108565b610fcc818361124d90919063ffffffff16565b505050565b7fffffffffffffffffffffffffffffffffffffffffffffffff000000000000000081121561100857611003828261126f565b61107a565b67ffffffffffffffff8113156110275761102282826112e6565b611079565b600081126110405761103b82600083611108565b611078565b611077826001837fffffffffffffffffffffffffffffffffffffffffffffffffffffffffffffffff6110729190612306565b611108565b5b5b5b5050565b60006110958484846002636de879d660e01b611332565b90509392505050565b6110a6611882565b60006020836110b5919061252d565b146110e1576020826110c7919061252d565b60206110d3919061239a565b826110de91906120e5565b91505b81836020018181525050604051808452600081528281016020016040525082905092915050565b601781116111355761112f8160058460ff16901b60ff16178461159a90919063ffffffff16565b50611248565b60ff81116111775761115a601860058460ff16901b178461159a90919063ffffffff16565b50611171816001856115ba9092919063ffffffff16565b50611247565b61ffff81116111ba5761119d601960058460ff16901b178461159a90919063ffffffff16565b506111b4816002856115ba9092919063ffffffff16565b50611246565b63ffffffff81116111ff576111e2601a60058460ff16901b178461159a90919063ffffffff16565b506111f9816004856115ba9092919063ffffffff16565b50611245565b67ffffffffffffffff81116112445761122b601b60058460ff16901b178461159a90919063ffffffff16565b50611242816008856115ba9092919063ffffffff16565b505b5b5b5b5b505050565b611255611882565b611267838460000151518485516115dc565b905092915050565b61128d60036005600660ff16901b178361159a90919063ffffffff16565b506112e282827fffffffffffffffffffffffffffffffffffffffffffffffffffffffffffffffff6112be9190612306565b6040516020016112ce9190612031565b6040516020818303038152906040526116cb565b5050565b61130460026005600660ff16901b178361159a90919063ffffffff16565b5061132e828260405160200161131a9190612031565b6040516020818303038152906040526116cb565b5050565b600030600454604051602001611349929190611dc0565b604051602081830303815290604052805190602001209050600454856060018181525050856005600083815260200190815260200160002060006101000a81548173ffffffffffffffffffffffffffffffffffffffff021916908373ffffffffffffffffffffffffffffffffffffffff160217905550807fb5e6e01e79f91267dc17b4e6314d5d4d03593d2ceee0fbb452b750bd70ea5af960405160405180910390a2600082600080886000015189602001518a604001518b606001518a8d6080015160000151604051602401611427989796959493929190611e69565b604051602081830303815290604052907bffffffffffffffffffffffffffffffffffffffffffffffffffffffff19166020820180517bffffffffffffffffffffffffffffffffffffffffffffffffffffffff83818316178352505050509050600260009054906101000a900473ffffffffffffffffffffffffffffffffffffffff1673ffffffffffffffffffffffffffffffffffffffff16634000aea08887846040518463ffffffff1660e01b81526004016114e593929190611eee565b602060405180830381600087803b1580156114ff57600080fd5b505af1158015611513573d6000803e3d6000fd5b505050506040513d601f19601f8201168201806040525081019061153791906119b7565b611576576040517f08c379a000000000000000000000000000000000000000000000000000000000815260040161156d90611f91565b60405180910390fd5b60016004600082825461158991906120e5565b925050819055505095945050505050565b6115a2611882565b6115b283846000015151846116f0565b905092915050565b6115c2611882565b6115d3848560000151518585611747565b90509392505050565b6115e4611882565b82518211156115f257600080fd5b8460200151828561160391906120e5565b1115611638576116378560026116288860200151888761162391906120e5565b6117d5565b61163291906122ac565b6117f1565b5b6000808651805187602083010193508088870111156116575787860182525b60208701925050505b6020841061169e578051825260208261167991906120e5565b915060208161168891906120e5565b9050602084611697919061239a565b9350611660565b60006001856020036101000a03905080198251168184511681811785525050508692505050949350505050565b6116d88260028351611108565b6116eb818361124d90919063ffffffff16565b505050565b6116f8611882565b8360200151831061171e5761171d846002866020015161171891906122ac565b6117f1565b5b835180516020858301018481538186141561173a576001820183525b5050508390509392505050565b61174f611882565b8460200151848361176091906120e5565b111561178857611787856002868561177891906120e5565b61178291906122ac565b6117f1565b5b600060018361010061179a919061218e565b6117a4919061239a565b905085518386820101858319825116178152815185880111156117c75784870182525b505085915050949350505050565b6000818311156117e7578290506117eb565b8190505b92915050565b600082600001519050611804838361109e565b5061180f838261124d565b50505050565b6040518060a0016040528060008019168152602001600073ffffffffffffffffffffffffffffffffffffffff16815260200160007bffffffffffffffffffffffffffffffffffffffffffffffffffffffff191681526020016000815260200161187c611882565b81525090565b604051806040016040528060608152602001600081525090565b60006118af6118aa84612071565b61204c565b9050828152602081018484840111156118cb576118ca6125f0565b5b6118d684828561248c565b509392505050565b6000813590506118ed816127bb565b92915050565b600081519050611902816127d2565b92915050565b600081359050611917816127e9565b92915050565b60008135905061192c81612800565b92915050565b600082601f830112611947576119466125eb565b5b813561195784826020860161189c565b91505092915050565b60008135905061196f81612817565b92915050565b60008151905061198481612817565b92915050565b6000602082840312156119a05761199f6125fa565b5b60006119ae848285016118de565b91505092915050565b6000602082840312156119cd576119cc6125fa565b5b60006119db848285016118f3565b91505092915050565b600080600080608085870312156119fe576119fd6125fa565b5b6000611a0c87828801611908565b9450506020611a1d87828801611960565b9350506040611a2e8782880161191d565b9250506060611a3f87828801611960565b91505092959194509250565b600080600080600080600060e0888a031215611a6a57611a696125fa565b5b6000611a788a828b01611908565b9750506020611a898a828b01611960565b9650506040611a9a8a828b01611960565b9550506060611aab8a828b01611960565b9450506080611abc8a828b01611960565b93505060a0611acd8a828b01611960565b92505060c088013567ffffffffffffffff811115611aee57611aed6125f5565b5b611afa8a828b01611932565b91505092959891949750929550565b600060208284031215611b1f57611b1e6125fa565b5b600082013567ffffffffffffffff811115611b3d57611b3c6125f5565b5b611b4984828501611932565b91505092915050565b60008060408385031215611b6957611b686125fa565b5b600083013567ffffffffffffffff811115611b8757611b866125f5565b5b611b9385828601611932565b925050602083013567ffffffffffffffff811115611bb457611bb36125f5565b5b611bc085828601611932565b9150509250929050565b600060208284031215611be057611bdf6125fa565b5b6000611bee84828501611975565b91505092915050565b611c00816123ce565b82525050565b611c0f816123ec565b82525050565b611c1e816123f6565b82525050565b6000611c2f826120a2565b611c3981856120b8565b9350611c4981856020860161249b565b611c52816125ff565b840191505092915050565b611c6e611c6982612456565b6124ff565b82525050565b6000611c7f826120ad565b611c8981856120da565b9350611c9981856020860161249b565b80840191505092915050565b6000611cb26016836120c9565b9150611cbd8261262a565b602082019050919050565b6000611cd56021836120da565b9150611ce082612653565b602182019050919050565b6000611cf86023836120c9565b9150611d03826126a2565b604082019050919050565b6000611d1b6016836120c9565b9150611d26826126f1565b602082019050919050565b6000611d3e6012836120c9565b9150611d498261271a565b602082019050919050565b6000611d616017836120c9565b9150611d6c82612743565b602082019050919050565b6000611d846028836120c9565b9150611d8f8261276c565b604082019050919050565b611da38161244c565b82525050565b611dba611db58261244c565b612523565b82525050565b6000611dcc8285611c5d565b601482019150611ddc8284611da9565b6020820191508190509392505050565b6000611df88284611c74565b915081905092915050565b6000611e0e82611cc8565b9150611e1a8284611c74565b915081905092915050565b6000602082019050611e3a6000830184611bf7565b92915050565b6000604082019050611e556000830185611bf7565b611e626020830184611d9a565b9392505050565b600061010082019050611e7f600083018b611bf7565b611e8c602083018a611d9a565b611e996040830189611c06565b611ea66060830188611bf7565b611eb36080830187611c15565b611ec060a0830186611d9a565b611ecd60c0830185611d9a565b81810360e0830152611edf8184611c24565b90509998505050505050505050565b6000606082019050611f036000830186611bf7565b611f106020830185611d9a565b8181036040830152611f228184611c24565b9050949350505050565b6000608082019050611f416000830187611c06565b611f4e6020830186611d9a565b611f5b6040830185611c15565b611f686060830184611d9a565b95945050505050565b60006020820190508181036000830152611f8a81611ca5565b9050919050565b60006020820190508181036000830152611faa81611ceb565b9050919050565b60006020820190508181036000830152611fca81611d0e565b9050919050565b60006020820190508181036000830152611fea81611d31565b9050919050565b6000602082019050818103600083015261200a81611d54565b9050919050565b6000602082019050818103600083015261202a81611d77565b9050919050565b60006020820190506120466000830184611d9a565b92915050565b6000612056612067565b905061206282826124ce565b919050565b6000604051905090565b600067ffffffffffffffff82111561208c5761208b6125bc565b5b612095826125ff565b9050602081019050919050565b600081519050919050565b600081519050919050565b600082825260208201905092915050565b600082825260208201905092915050565b600081905092915050565b60006120f08261244c565b91506120fb8361244c565b9250827fffffffffffffffffffffffffffffffffffffffffffffffffffffffffffffffff038211156121305761212f61255e565b5b828201905092915050565b6000808291508390505b6001851115612185578086048111156121615761216061255e565b5b60018516156121705780820291505b808102905061217e8561261d565b9450612145565b94509492505050565b60006121998261244c565b91506121a48361244c565b92506121d17fffffffffffffffffffffffffffffffffffffffffffffffffffffffffffffffff84846121d9565b905092915050565b6000826121e957600190506122a5565b816121f757600090506122a5565b816001811461220d576002811461221757612246565b60019150506122a5565b60ff8411156122295761222861255e565b5b8360020a9150848211156122405761223f61255e565b5b506122a5565b5060208310610133831016604e8410600b841016171561227b5782820a9050838111156122765761227561255e565b5b6122a5565b612288848484600161213b565b9250905081840481111561229f5761229e61255e565b5b81810290505b9392505050565b60006122b78261244c565b91506122c28361244c565b9250817fffffffffffffffffffffffffffffffffffffffffffffffffffffffffffffffff04831182151516156122fb576122fa61255e565b5b828202905092915050565b600061231182612422565b915061231c83612422565b9250827f8000000000000000000000000000000000000000000000000000000000000000018212600084121516156123575761235661255e565b5b827f7fffffffffffffffffffffffffffffffffffffffffffffffffffffffffffffff01821360008412161561238f5761238e61255e565b5b828203905092915050565b60006123a58261244c565b91506123b08361244c565b9250828210156123c3576123c261255e565b5b828203905092915050565b60006123d98261242c565b9050919050565b60008115159050919050565b6000819050919050565b60007fffffffff0000000000000000000000000000000000000000000000000000000082169050919050565b6000819050919050565b600073ffffffffffffffffffffffffffffffffffffffff82169050919050565b6000819050919050565b600061246182612468565b9050919050565b60006124738261247a565b9050919050565b60006124858261242c565b9050919050565b82818337600083830152505050565b60005b838110156124b957808201518184015260208101905061249e565b838111156124c8576000848401525b50505050565b6124d7826125ff565b810181811067ffffffffffffffff821117156124f6576124f56125bc565b5b80604052505050565b600061250a82612511565b9050919050565b600061251c82612610565b9050919050565b6000819050919050565b60006125388261244c565b91506125438361244c565b9250826125535761255261258d565b5b828206905092915050565b7f4e487b7100000000000000000000000000000000000000000000000000000000600052601160045260246000fd5b7f4e487b7100000000000000000000000000000000000000000000000000000000600052601260045260246000fd5b7f4e487b7100000000000000000000000000000000000000000000000000000000600052604160045260246000fd5b600080fd5b600080fd5b600080fd5b600080fd5b6000601f19601f8301169050919050565b60008160601b9050919050565b60008160011c9050919050565b7f4d7573742062652070726f706f736564206f776e657200000000000000000000600082015250565b7f687474703a2f2f3136392e36302e3136372e3137383a333030312f73636f726560008201527f2f00000000000000000000000000000000000000000000000000000000000000602082015250565b7f756e61626c6520746f207472616e73666572416e6443616c6c20746f206f726160008201527f636c650000000000000000000000000000000000000000000000000000000000602082015250565b7f4f6e6c792063616c6c61626c65206279206f776e657200000000000000000000600082015250565b7f556e61626c6520746f207472616e736665720000000000000000000000000000600082015250565b7f43616e6e6f74207472616e7366657220746f2073656c66000000000000000000600082015250565b7f536f75726365206d75737420626520746865206f7261636c65206f662074686560008201527f2072657175657374000000000000000000000000000000000000000000000000602082015250565b6127c4816123ce565b81146127cf57600080fd5b50565b6127db816123e0565b81146127e657600080fd5b50565b6127f2816123ec565b81146127fd57600080fd5b50565b612809816123f6565b811461281457600080fd5b50565b6128208161244c565b811461282b57600080fd5b5056fea2646970667358221220dda431a4d22d0e8466cf5e93e1cf3a55bda5a082fc15622d3476e851f86fd21d64736f6c63430008070033",
  "immutableReferences": {},
  "source": "// SPDX-License-Identifier: MIT\npragma solidity ^0.8.7;\n\nimport \"@chainlink/contracts/src/v0.8/ChainlinkClient.sol\";\nimport \"@chainlink/contracts/src/v0.8/ConfirmedOwner.sol\";\n\ncontract ChainScoreClient is ChainlinkClient, ConfirmedOwner {\n    using Chainlink for Chainlink.Request;\n\n    uint256 private constant ORACLE_PAYMENT = 1 * LINK_DIVISIBILITY;\n\n    event ScoreRequestFulfilled(\n        bytes32 indexed requestId,\n        uint256 indexed score,\n        string indexed user\n    );\n\n    mapping(string => uint256) public scores;\n    mapping(string => uint256) public supply_scores;\n    mapping(string => uint256) public value_scores;\n    mapping(string => uint256) public repayment_scores;\n    mapping(string => uint256) public debt_scores;\n\n    constructor(address scoreToken, address oracle) ConfirmedOwner(msg.sender) {\n        setChainlinkToken(scoreToken);\n        setChainlinkOracle(oracle);\n    }\n\n    /** ============================= */\n\n    function requestScore(string memory _address, string memory _jobId)\n        public\n        onlyOwner\n    {\n        Chainlink.Request memory req = buildChainlinkRequest(\n            stringToBytes32(_jobId),\n            address(this),\n            this.fulfillScore.selector\n        );\n        bytes memory str = abi.encodePacked(\n            \"http://169.60.167.178:3001/score/\",\n            _address\n        );\n        string memory url = string(str);\n\n        req.add(\"get\", url);\n        req.add(\"address\", _address);\n        req.addInt(\"times\", 10**18);\n\n        requestOracleData(req, ORACLE_PAYMENT);\n    }\n\n    function fulfillScore(\n        bytes32 requestId,\n        uint256 score,\n        uint256 supply_score,\n        uint256 value_score,\n        uint256 repayment_score,\n        uint256 debt_score,\n        string memory account\n    ) public recordChainlinkFulfillment(requestId) {\n        emit ScoreRequestFulfilled(requestId, score, account);\n\n        scores[account] = score;\n        supply_scores[account] = supply_score;\n        value_scores[account] = value_score;\n        repayment_scores[account] = repayment_score;\n        debt_scores[account] = debt_score;\n    }\n\n    /** ============================= */\n\n    function updateOracle(address _newOracle) external onlyOwner {\n        setChainlinkOracle(_newOracle);\n    }\n\n    function updateScoreToken(address _newToken) external onlyOwner {\n        setChainlinkToken(_newToken);\n    }\n\n    function withdrawScore() public onlyOwner {\n        LinkTokenInterface link = LinkTokenInterface(chainlinkTokenAddress());\n        require(\n            link.transfer(msg.sender, link.balanceOf(address(this))),\n            \"Unable to transfer\"\n        );\n    }\n\n    function cancelRequest(\n        bytes32 _requestId,\n        uint256 _payment,\n        bytes4 _callbackFunctionId,\n        uint256 _expiration\n    ) public onlyOwner {\n        cancelChainlinkRequest(\n            _requestId,\n            _payment,\n            _callbackFunctionId,\n            _expiration\n        );\n    }\n\n    function stringToBytes32(string memory source)\n        private\n        pure\n        returns (bytes32 result)\n    {\n        bytes memory tempEmptyStringTest = bytes(source);\n        if (tempEmptyStringTest.length == 0) {\n            return 0x0;\n        }\n\n        assembly {\n            // solhint-disable-line no-inline-assembly\n            result := mload(add(source, 32))\n        }\n    }\n}",
  "sourcePath": "/home/prasad/Desktop/chainscore/alpha/contracts/ChainScoreClient.sol",
  "compiler": {
    "name": "solc",
    "version": "0.8.7+commit.e28d00a7.Emscripten.clang"
  },
  "schemaVersion": "3.4.3",
  "updatedAt": "2021-12-05T14:30:47.066Z",
  "devdoc": {
    "kind": "dev",
    "methods": {},
    "version": 1
  },
  "userdoc": {
    "kind": "user",
    "methods": {
      "acceptOwnership()": {
        "notice": "Allows an ownership transfer to be completed by the recipient."
      },
      "owner()": {
        "notice": "Get the current owner"
      },
      "requestScore(string,string)": {
        "notice": "============================= "
      },
      "transferOwnership(address)": {
        "notice": "Allows an owner to begin transferring ownership to a new address, pending."
      },
      "updateOracle(address)": {
        "notice": "============================= "
      }
    },
    "version": 1
  }
}