{
  "contractName": "ChainScoreClient",
  "abi": [
    {
      "inputs": [
        {
          "internalType": "address",
          "name": "scoreToken",
          "type": "address"
        },
        {
          "internalType": "address",
          "name": "oracle",
          "type": "address"
        }
      ],
      "stateMutability": "nonpayable",
      "type": "constructor"
    },
    {
      "anonymous": false,
      "inputs": [
        {
          "indexed": true,
          "internalType": "bytes32",
          "name": "id",
          "type": "bytes32"
        }
      ],
      "name": "ChainlinkCancelled",
      "type": "event"
    },
    {
      "anonymous": false,
      "inputs": [
        {
          "indexed": true,
          "internalType": "bytes32",
          "name": "id",
          "type": "bytes32"
        }
      ],
      "name": "ChainlinkFulfilled",
      "type": "event"
    },
    {
      "anonymous": false,
      "inputs": [
        {
          "indexed": true,
          "internalType": "bytes32",
          "name": "id",
          "type": "bytes32"
        }
      ],
      "name": "ChainlinkRequested",
      "type": "event"
    },
    {
      "anonymous": false,
      "inputs": [
        {
          "indexed": true,
          "internalType": "address",
          "name": "from",
          "type": "address"
        },
        {
          "indexed": true,
          "internalType": "address",
          "name": "to",
          "type": "address"
        }
      ],
      "name": "OwnershipTransferRequested",
      "type": "event"
    },
    {
      "anonymous": false,
      "inputs": [
        {
          "indexed": true,
          "internalType": "address",
          "name": "from",
          "type": "address"
        },
        {
          "indexed": true,
          "internalType": "address",
          "name": "to",
          "type": "address"
        }
      ],
      "name": "OwnershipTransferred",
      "type": "event"
    },
    {
      "anonymous": false,
      "inputs": [
        {
          "indexed": true,
          "internalType": "bytes32",
          "name": "requestId",
          "type": "bytes32"
        },
        {
          "indexed": true,
          "internalType": "uint256",
          "name": "score",
          "type": "uint256"
        },
        {
          "indexed": false,
          "internalType": "uint256",
          "name": "supply_score",
          "type": "uint256"
        },
        {
          "indexed": false,
          "internalType": "uint256",
          "name": "value_score",
          "type": "uint256"
        },
        {
          "indexed": false,
          "internalType": "uint256",
          "name": "repayment_score",
          "type": "uint256"
        },
        {
          "indexed": false,
          "internalType": "uint256",
          "name": "debt_score",
          "type": "uint256"
        },
        {
          "indexed": true,
          "internalType": "address",
          "name": "user",
          "type": "address"
        }
      ],
      "name": "ScoreRequestFulfilled",
      "type": "event"
    },
    {
      "inputs": [],
      "name": "acceptOwnership",
      "outputs": [],
      "stateMutability": "nonpayable",
      "type": "function"
    },
    {
      "inputs": [
        {
          "internalType": "address",
          "name": "",
          "type": "address"
        }
      ],
      "name": "debt_scores",
      "outputs": [
        {
          "internalType": "uint256",
          "name": "",
          "type": "uint256"
        }
      ],
      "stateMutability": "view",
      "type": "function"
    },
    {
      "inputs": [],
      "name": "owner",
      "outputs": [
        {
          "internalType": "address",
          "name": "",
          "type": "address"
        }
      ],
      "stateMutability": "view",
      "type": "function"
    },
    {
      "inputs": [
        {
          "internalType": "address",
          "name": "",
          "type": "address"
        }
      ],
      "name": "repayment_scores",
      "outputs": [
        {
          "internalType": "uint256",
          "name": "",
          "type": "uint256"
        }
      ],
      "stateMutability": "view",
      "type": "function"
    },
    {
      "inputs": [
        {
          "internalType": "address",
          "name": "",
          "type": "address"
        }
      ],
      "name": "scores",
      "outputs": [
        {
          "internalType": "uint256",
          "name": "",
          "type": "uint256"
        }
      ],
      "stateMutability": "view",
      "type": "function"
    },
    {
      "inputs": [
        {
          "internalType": "address",
          "name": "",
          "type": "address"
        }
      ],
      "name": "supply_scores",
      "outputs": [
        {
          "internalType": "uint256",
          "name": "",
          "type": "uint256"
        }
      ],
      "stateMutability": "view",
      "type": "function"
    },
    {
      "inputs": [
        {
          "internalType": "address",
          "name": "to",
          "type": "address"
        }
      ],
      "name": "transferOwnership",
      "outputs": [],
      "stateMutability": "nonpayable",
      "type": "function"
    },
    {
      "inputs": [
        {
          "internalType": "address",
          "name": "",
          "type": "address"
        }
      ],
      "name": "value_scores",
      "outputs": [
        {
          "internalType": "uint256",
          "name": "",
          "type": "uint256"
        }
      ],
      "stateMutability": "view",
      "type": "function"
    },
    {
      "inputs": [
        {
          "internalType": "address",
          "name": "_address",
          "type": "address"
        },
        {
          "internalType": "bytes32",
          "name": "_jobSpec",
          "type": "bytes32"
        }
      ],
      "name": "requestScore",
      "outputs": [],
      "stateMutability": "nonpayable",
      "type": "function"
    },
    {
      "inputs": [
        {
          "internalType": "bytes32",
          "name": "requestId",
          "type": "bytes32"
        },
        {
          "internalType": "uint256",
          "name": "score",
          "type": "uint256"
        },
        {
          "internalType": "uint256",
          "name": "supply_score",
          "type": "uint256"
        },
        {
          "internalType": "uint256",
          "name": "value_score",
          "type": "uint256"
        },
        {
          "internalType": "uint256",
          "name": "repayment_score",
          "type": "uint256"
        },
        {
          "internalType": "uint256",
          "name": "debt_score",
          "type": "uint256"
        },
        {
          "internalType": "address",
          "name": "account",
          "type": "address"
        }
      ],
      "name": "fulfillScore",
      "outputs": [],
      "stateMutability": "nonpayable",
      "type": "function"
    },
    {
      "inputs": [
        {
          "internalType": "address",
          "name": "_newOracle",
          "type": "address"
        }
      ],
      "name": "updateOracle",
      "outputs": [],
      "stateMutability": "nonpayable",
      "type": "function"
    },
    {
      "inputs": [
        {
          "internalType": "address",
          "name": "_newToken",
          "type": "address"
        }
      ],
      "name": "updateScoreToken",
      "outputs": [],
      "stateMutability": "nonpayable",
      "type": "function"
    },
    {
      "inputs": [],
      "name": "withdrawScore",
      "outputs": [],
      "stateMutability": "nonpayable",
      "type": "function"
    },
    {
      "inputs": [
        {
          "internalType": "bytes32",
          "name": "_requestId",
          "type": "bytes32"
        },
        {
          "internalType": "uint256",
          "name": "_payment",
          "type": "uint256"
        },
        {
          "internalType": "bytes4",
          "name": "_callbackFunctionId",
          "type": "bytes4"
        },
        {
          "internalType": "uint256",
          "name": "_expiration",
          "type": "uint256"
        }
      ],
      "name": "cancelRequest",
      "outputs": [],
      "stateMutability": "nonpayable",
      "type": "function"
    },
    {
      "inputs": [
        {
          "internalType": "string",
          "name": "source",
          "type": "string"
        }
      ],
      "name": "stringToBytes32",
      "outputs": [
        {
          "internalType": "bytes32",
          "name": "result",
          "type": "bytes32"
        }
      ],
      "stateMutability": "pure",
      "type": "function"
    }
  ],
  "bytecode": "0x608060405260016004553480156200001657600080fd5b5060405162002d3a38038062002d3a83398181016040528101906200003c919062000338565b338060008073ffffffffffffffffffffffffffffffffffffffff168273ffffffffffffffffffffffffffffffffffffffff161415620000b2576040517f08c379a0000000000000000000000000000000000000000000000000000000008152600401620000a990620003cd565b60405180910390fd5b81600660006101000a81548173ffffffffffffffffffffffffffffffffffffffff021916908373ffffffffffffffffffffffffffffffffffffffff160217905550600073ffffffffffffffffffffffffffffffffffffffff168173ffffffffffffffffffffffffffffffffffffffff16146200013a5762000139816200016760201b60201c565b5b5050506200014e826200029960201b60201c565b6200015f81620002dd60201b60201c565b5050620004c7565b3373ffffffffffffffffffffffffffffffffffffffff168173ffffffffffffffffffffffffffffffffffffffff161415620001d9576040517f08c379a0000000000000000000000000000000000000000000000000000000008152600401620001d090620003ef565b60405180910390fd5b80600760006101000a81548173ffffffffffffffffffffffffffffffffffffffff021916908373ffffffffffffffffffffffffffffffffffffffff1602179055508073ffffffffffffffffffffffffffffffffffffffff16600660009054906101000a900473ffffffffffffffffffffffffffffffffffffffff1673ffffffffffffffffffffffffffffffffffffffff167fed8889f560326eb138920d842192f0eb3dd22b4f139c87a2c57538e05bae127860405160405180910390a350565b80600260006101000a81548173ffffffffffffffffffffffffffffffffffffffff021916908373ffffffffffffffffffffffffffffffffffffffff16021790555050565b80600360006101000a81548173ffffffffffffffffffffffffffffffffffffffff021916908373ffffffffffffffffffffffffffffffffffffffff16021790555050565b6000815190506200033281620004ad565b92915050565b6000806040838503121562000352576200035162000456565b5b6000620003628582860162000321565b9250506020620003758582860162000321565b9150509250929050565b60006200038e60188362000411565b91506200039b826200045b565b602082019050919050565b6000620003b560178362000411565b9150620003c28262000484565b602082019050919050565b60006020820190508181036000830152620003e8816200037f565b9050919050565b600060208201905081810360008301526200040a81620003a6565b9050919050565b600082825260208201905092915050565b60006200042f8262000436565b9050919050565b600073ffffffffffffffffffffffffffffffffffffffff82169050919050565b600080fd5b7f43616e6e6f7420736574206f776e657220746f207a65726f0000000000000000600082015250565b7f43616e6e6f74207472616e7366657220746f2073656c66000000000000000000600082015250565b620004b88162000422565b8114620004c457600080fd5b50565b61286380620004d76000396000f3fe608060405234801561001057600080fd5b50600436106100f55760003560e01c80638630025711610097578063c592e1e511610066578063c592e1e51461025c578063cfb519281461028c578063ec65d0f8146102bc578063f2fde38b146102d8576100f5565b806386300257146101c25780638da5cb5b146101de578063a339824f146101fc578063b37fddb61461022c576100f5565b8063371eb784116100d3578063371eb7841461013c578063742c5cba1461016c57806376dd110f1461018857806379ba5097146101b8576100f5565b80631cb44dfc146100fa578063230ba5b51461011657806328fc5d3c14610120575b600080fd5b610114600480360381019061010f9190611980565b6102f4565b005b61011e610308565b005b61013a600480360381019061013591906119ad565b610473565b005b61015660048036038101906101519190611980565b6104ff565b6040516101639190611f61565b60405180910390f35b61018660048036038101906101819190611980565b610517565b005b6101a2600480360381019061019d9190611980565b61052b565b6040516101af9190611f61565b60405180910390f35b6101c0610543565b005b6101dc60048036038101906101d79190611a81565b6106da565b005b6101e6610993565b6040516101f39190611d3a565b60405180910390f35b61021660048036038101906102119190611980565b6109bd565b6040516102239190611f61565b60405180910390f35b61024660048036038101906102419190611980565b6109d5565b6040516102539190611f61565b60405180910390f35b61027660048036038101906102719190611980565b6109ed565b6040516102839190611f61565b60405180910390f35b6102a660048036038101906102a19190611b23565b610a05565b6040516102b39190611e41565b60405180910390f35b6102d660048036038101906102d19190611a1a565b610a2f565b005b6102f260048036038101906102ed9190611980565b610a49565b005b6102fc610a5d565b61030581610aef565b50565b610310610a5d565b600061031a610b33565b90508073ffffffffffffffffffffffffffffffffffffffff1663a9059cbb338373ffffffffffffffffffffffffffffffffffffffff166370a08231306040518263ffffffff1660e01b81526004016103729190611d3a565b60206040518083038186803b15801561038a57600080fd5b505afa15801561039e573d6000803e3d6000fd5b505050506040513d601f19601f820116820180604052508101906103c29190611b6c565b6040518363ffffffff1660e01b81526004016103df929190611d55565b602060405180830381600087803b1580156103f957600080fd5b505af115801561040d573d6000803e3d6000fd5b505050506040513d601f19601f8201168201806040525081019061043191906119ed565b610470576040517f08c379a000000000000000000000000000000000000000000000000000000000815260040161046790611f01565b60405180910390fd5b50565b60006104878230638630025760e01b610b5d565b90506104db6040518060400160405280600781526020017f61646472657373000000000000000000000000000000000000000000000000008152506104cb85610b8e565b83610d519092919063ffffffff16565b6104f981670de0b6b3a764000060016104f491906122a4565b610d84565b50505050565b600a6020528060005260406000206000915090505481565b61051f610a5d565b61052881610dbb565b50565b60086020528060005260406000206000915090505481565b600760009054906101000a900473ffffffffffffffffffffffffffffffffffffffff1673ffffffffffffffffffffffffffffffffffffffff163373ffffffffffffffffffffffffffffffffffffffff16146105d3576040517f08c379a00000000000000000000000000000000000000000000000000000000081526004016105ca90611ea1565b60405180910390fd5b6000600660009054906101000a900473ffffffffffffffffffffffffffffffffffffffff16905033600660006101000a81548173ffffffffffffffffffffffffffffffffffffffff021916908373ffffffffffffffffffffffffffffffffffffffff1602179055506000600760006101000a81548173ffffffffffffffffffffffffffffffffffffffff021916908373ffffffffffffffffffffffffffffffffffffffff1602179055503373ffffffffffffffffffffffffffffffffffffffff168173ffffffffffffffffffffffffffffffffffffffff167f8be0079c531659141344cd1fd0a4f28419497f9722a3daafe3b4186f6b6457e060405160405180910390a350565b866005600082815260200190815260200160002060009054906101000a900473ffffffffffffffffffffffffffffffffffffffff1673ffffffffffffffffffffffffffffffffffffffff163373ffffffffffffffffffffffffffffffffffffffff161461077c576040517f08c379a000000000000000000000000000000000000000000000000000000000815260040161077390611f41565b60405180910390fd5b6005600082815260200190815260200160002060006101000a81549073ffffffffffffffffffffffffffffffffffffffff0219169055807f7cc135e0cebb02c3480ae5d74d377283180a2601f8f644edf7987b009316c63a60405160405180910390a28173ffffffffffffffffffffffffffffffffffffffff1687897f8e5a3e390a3622f58716ef3492543d9382d2de4e2bd888711b16b8abeb1023348989898960405161082d9493929190611f7c565b60405180910390a486600860008473ffffffffffffffffffffffffffffffffffffffff1673ffffffffffffffffffffffffffffffffffffffff1681526020019081526020016000208190555085600960008473ffffffffffffffffffffffffffffffffffffffff1673ffffffffffffffffffffffffffffffffffffffff1681526020019081526020016000208190555084600a60008473ffffffffffffffffffffffffffffffffffffffff1673ffffffffffffffffffffffffffffffffffffffff1681526020019081526020016000208190555083600b60008473ffffffffffffffffffffffffffffffffffffffff1673ffffffffffffffffffffffffffffffffffffffff1681526020019081526020016000208190555082600c60008473ffffffffffffffffffffffffffffffffffffffff1673ffffffffffffffffffffffffffffffffffffffff168152602001908152602001600020819055505050505050505050565b6000600660009054906101000a900473ffffffffffffffffffffffffffffffffffffffff16905090565b600b6020528060005260406000206000915090505481565b600c6020528060005260406000206000915090505481565b60096020528060005260406000206000915090505481565b600080829050600081511415610a21576000801b915050610a2a565b60208301519150505b919050565b610a37610a5d565b610a4384848484610dff565b50505050565b610a51610a5d565b610a5a81610f12565b50565b600660009054906101000a900473ffffffffffffffffffffffffffffffffffffffff1673ffffffffffffffffffffffffffffffffffffffff163373ffffffffffffffffffffffffffffffffffffffff1614610aed576040517f08c379a0000000000000000000000000000000000000000000000000000000008152600401610ae490611ee1565b60405180910390fd5b565b80600360006101000a81548173ffffffffffffffffffffffffffffffffffffffff021916908373ffffffffffffffffffffffffffffffffffffffff16021790555050565b6000600260009054906101000a900473ffffffffffffffffffffffffffffffffffffffff16905090565b610b6561180b565b610b6d61180b565b610b8485858584611041909392919063ffffffff16565b9150509392505050565b60606000602867ffffffffffffffff811115610bad57610bac61260a565b5b6040519080825280601f01601f191660200182016040528015610bdf5781602001600182028036833780820191505090505b50905060005b6014811015610d47576000816013610bfd9190612339565b6008610c0991906122a4565b6002610c159190612186565b8573ffffffffffffffffffffffffffffffffffffffff16610c3691906120d1565b60f81b9050600060108260f81c610c4d9190612102565b60f81b905060008160f81c6010610c6491906122fe565b8360f81c610c72919061236d565b60f81b9050610c80826110f1565b85856002610c8e91906122a4565b81518110610c9f57610c9e6125db565b5b60200101907effffffffffffffffffffffffffffffffffffffffffffffffffffffffffffff1916908160001a905350610cd7816110f1565b856001866002610ce791906122a4565b610cf19190612044565b81518110610d0257610d016125db565b5b60200101907effffffffffffffffffffffffffffffffffffffffffffffffffffffffffffff1916908160001a9053505050508080610d3f906124d5565b915050610be5565b5080915050919050565b610d6882846080015161113790919063ffffffff16565b610d7f81846080015161113790919063ffffffff16565b505050565b6000610db3600360009054906101000a900473ffffffffffffffffffffffffffffffffffffffff16848461115c565b905092915050565b80600260006101000a81548173ffffffffffffffffffffffffffffffffffffffff021916908373ffffffffffffffffffffffffffffffffffffffff16021790555050565b60006005600086815260200190815260200160002060009054906101000a900473ffffffffffffffffffffffffffffffffffffffff1690506005600086815260200190815260200160002060006101000a81549073ffffffffffffffffffffffffffffffffffffffff0219169055847fe1fe3afa0f7f761ff0a8b89086790efd5140d2907ebd5b7ff6bfcb5e075fd4c560405160405180910390a28073ffffffffffffffffffffffffffffffffffffffff16636ee4d553868686866040518563ffffffff1660e01b8152600401610ed99493929190611e5c565b600060405180830381600087803b158015610ef357600080fd5b505af1158015610f07573d6000803e3d6000fd5b505050505050505050565b3373ffffffffffffffffffffffffffffffffffffffff168173ffffffffffffffffffffffffffffffffffffffff161415610f81576040517f08c379a0000000000000000000000000000000000000000000000000000000008152600401610f7890611f21565b60405180910390fd5b80600760006101000a81548173ffffffffffffffffffffffffffffffffffffffff021916908373ffffffffffffffffffffffffffffffffffffffff1602179055508073ffffffffffffffffffffffffffffffffffffffff16600660009054906101000a900473ffffffffffffffffffffffffffffffffffffffff1673ffffffffffffffffffffffffffffffffffffffff167fed8889f560326eb138920d842192f0eb3dd22b4f139c87a2c57538e05bae127860405160405180910390a350565b61104961180b565b611059856080015161010061117c565b508385600001818152505082856020019073ffffffffffffffffffffffffffffffffffffffff16908173ffffffffffffffffffffffffffffffffffffffff16815250508185604001907bffffffffffffffffffffffffffffffffffffffffffffffffffffffff191690817bffffffffffffffffffffffffffffffffffffffffffffffffffffffff191681525050849050949350505050565b6000600a8260f81c60ff16101561111c5760308260f81c611112919061209a565b60f81b9050611132565b60578260f81c61112c919061209a565b60f81b90505b919050565b61114482600383516111e6565b611157818361132b90919063ffffffff16565b505050565b60006111738484846002636de879d660e01b61134d565b90509392505050565b611184611878565b6000602083611193919061254c565b146111bf576020826111a5919061254c565b60206111b19190612339565b826111bc9190612044565b91505b81836020018181525050604051808452600081528281016020016040525082905092915050565b601781116112135761120d8160058460ff16901b60ff1617846115b590919063ffffffff16565b50611326565b60ff811161125557611238601860058460ff16901b17846115b590919063ffffffff16565b5061124f816001856115d59092919063ffffffff16565b50611325565b61ffff81116112985761127b601960058460ff16901b17846115b590919063ffffffff16565b50611292816002856115d59092919063ffffffff16565b50611324565b63ffffffff81116112dd576112c0601a60058460ff16901b17846115b590919063ffffffff16565b506112d7816004856115d59092919063ffffffff16565b50611323565b67ffffffffffffffff811161132257611309601b60058460ff16901b17846115b590919063ffffffff16565b50611320816008856115d59092919063ffffffff16565b505b5b5b5b5b505050565b611333611878565b611345838460000151518485516115f7565b905092915050565b600030600454604051602001611364929190611d0e565b604051602081830303815290604052805190602001209050600454856060018181525050856005600083815260200190815260200160002060006101000a81548173ffffffffffffffffffffffffffffffffffffffff021916908373ffffffffffffffffffffffffffffffffffffffff160217905550807fb5e6e01e79f91267dc17b4e6314d5d4d03593d2ceee0fbb452b750bd70ea5af960405160405180910390a2600082600080886000015189602001518a604001518b606001518a8d6080015160000151604051602401611442989796959493929190611d7e565b604051602081830303815290604052907bffffffffffffffffffffffffffffffffffffffffffffffffffffffff19166020820180517bffffffffffffffffffffffffffffffffffffffffffffffffffffffff83818316178352505050509050600260009054906101000a900473ffffffffffffffffffffffffffffffffffffffff1673ffffffffffffffffffffffffffffffffffffffff16634000aea08887846040518463ffffffff1660e01b815260040161150093929190611e03565b602060405180830381600087803b15801561151a57600080fd5b505af115801561152e573d6000803e3d6000fd5b505050506040513d601f19601f8201168201806040525081019061155291906119ed565b611591576040517f08c379a000000000000000000000000000000000000000000000000000000000815260040161158890611ec1565b60405180910390fd5b6001600460008282546115a49190612044565b925050819055505095945050505050565b6115bd611878565b6115cd83846000015151846116e6565b905092915050565b6115dd611878565b6115ee84856000015151858561173d565b90509392505050565b6115ff611878565b825182111561160d57600080fd5b8460200151828561161e9190612044565b1115611653576116528560026116438860200151888761163e9190612044565b6117cb565b61164d91906122a4565b6117e7565b5b6000808651805187602083010193508088870111156116725787860182525b60208701925050505b602084106116b957805182526020826116949190612044565b91506020816116a39190612044565b90506020846116b29190612339565b935061167b565b60006001856020036101000a03905080198251168184511681811785525050508692505050949350505050565b6116ee611878565b8360200151831061171457611713846002866020015161170e91906122a4565b6117e7565b5b8351805160208583010184815381861415611730576001820183525b5050508390509392505050565b611745611878565b846020015184836117569190612044565b111561177e5761177d856002868561176e9190612044565b61177891906122a4565b6117e7565b5b60006001836101006117909190612186565b61179a9190612339565b905085518386820101858319825116178152815185880111156117bd5784870182525b505085915050949350505050565b6000818311156117dd578290506117e1565b8190505b92915050565b6000826000015190506117fa838361117c565b50611805838261132b565b50505050565b6040518060a0016040528060008019168152602001600073ffffffffffffffffffffffffffffffffffffffff16815260200160007bffffffffffffffffffffffffffffffffffffffffffffffffffffffff1916815260200160008152602001611872611878565b81525090565b604051806040016040528060608152602001600081525090565b60006118a56118a084611fe6565b611fc1565b9050828152602081018484840111156118c1576118c061263e565b5b6118cc848285612462565b509392505050565b6000813590506118e3816127ba565b92915050565b6000815190506118f8816127d1565b92915050565b60008135905061190d816127e8565b92915050565b600081359050611922816127ff565b92915050565b600082601f83011261193d5761193c612639565b5b813561194d848260208601611892565b91505092915050565b60008135905061196581612816565b92915050565b60008151905061197a81612816565b92915050565b60006020828403121561199657611995612648565b5b60006119a4848285016118d4565b91505092915050565b600080604083850312156119c4576119c3612648565b5b60006119d2858286016118d4565b92505060206119e3858286016118fe565b9150509250929050565b600060208284031215611a0357611a02612648565b5b6000611a11848285016118e9565b91505092915050565b60008060008060808587031215611a3457611a33612648565b5b6000611a42878288016118fe565b9450506020611a5387828801611956565b9350506040611a6487828801611913565b9250506060611a7587828801611956565b91505092959194509250565b600080600080600080600060e0888a031215611aa057611a9f612648565b5b6000611aae8a828b016118fe565b9750506020611abf8a828b01611956565b9650506040611ad08a828b01611956565b9550506060611ae18a828b01611956565b9450506080611af28a828b01611956565b93505060a0611b038a828b01611956565b92505060c0611b148a828b016118d4565b91505092959891949750929550565b600060208284031215611b3957611b38612648565b5b600082013567ffffffffffffffff811115611b5757611b56612643565b5b611b6384828501611928565b91505092915050565b600060208284031215611b8257611b81612648565b5b6000611b908482850161196b565b91505092915050565b611ba2816123a1565b82525050565b611bb1816123bf565b82525050565b611bc0816123c9565b82525050565b6000611bd182612017565b611bdb8185612022565b9350611beb818560208601612471565b611bf48161264d565b840191505092915050565b611c10611c0b8261242c565b61251e565b82525050565b6000611c23601683612033565b9150611c2e82612678565b602082019050919050565b6000611c46602383612033565b9150611c51826126a1565b604082019050919050565b6000611c69601683612033565b9150611c74826126f0565b602082019050919050565b6000611c8c601283612033565b9150611c9782612719565b602082019050919050565b6000611caf601783612033565b9150611cba82612742565b602082019050919050565b6000611cd2602883612033565b9150611cdd8261276b565b604082019050919050565b611cf181612415565b82525050565b611d08611d0382612415565b612542565b82525050565b6000611d1a8285611bff565b601482019150611d2a8284611cf7565b6020820191508190509392505050565b6000602082019050611d4f6000830184611b99565b92915050565b6000604082019050611d6a6000830185611b99565b611d776020830184611ce8565b9392505050565b600061010082019050611d94600083018b611b99565b611da1602083018a611ce8565b611dae6040830189611ba8565b611dbb6060830188611b99565b611dc86080830187611bb7565b611dd560a0830186611ce8565b611de260c0830185611ce8565b81810360e0830152611df48184611bc6565b90509998505050505050505050565b6000606082019050611e186000830186611b99565b611e256020830185611ce8565b8181036040830152611e378184611bc6565b9050949350505050565b6000602082019050611e566000830184611ba8565b92915050565b6000608082019050611e716000830187611ba8565b611e7e6020830186611ce8565b611e8b6040830185611bb7565b611e986060830184611ce8565b95945050505050565b60006020820190508181036000830152611eba81611c16565b9050919050565b60006020820190508181036000830152611eda81611c39565b9050919050565b60006020820190508181036000830152611efa81611c5c565b9050919050565b60006020820190508181036000830152611f1a81611c7f565b9050919050565b60006020820190508181036000830152611f3a81611ca2565b9050919050565b60006020820190508181036000830152611f5a81611cc5565b9050919050565b6000602082019050611f766000830184611ce8565b92915050565b6000608082019050611f916000830187611ce8565b611f9e6020830186611ce8565b611fab6040830185611ce8565b611fb86060830184611ce8565b95945050505050565b6000611fcb611fdc565b9050611fd782826124a4565b919050565b6000604051905090565b600067ffffffffffffffff8211156120015761200061260a565b5b61200a8261264d565b9050602081019050919050565b600081519050919050565b600082825260208201905092915050565b600082825260208201905092915050565b600061204f82612415565b915061205a83612415565b9250827fffffffffffffffffffffffffffffffffffffffffffffffffffffffffffffffff0382111561208f5761208e61257d565b5b828201905092915050565b60006120a58261241f565b91506120b08361241f565b92508260ff038211156120c6576120c561257d565b5b828201905092915050565b60006120dc82612415565b91506120e783612415565b9250826120f7576120f66125ac565b5b828204905092915050565b600061210d8261241f565b91506121188361241f565b925082612128576121276125ac565b5b828204905092915050565b6000808291508390505b600185111561217d578086048111156121595761215861257d565b5b60018516156121685780820291505b80810290506121768561266b565b945061213d565b94509492505050565b600061219182612415565b915061219c83612415565b92506121c97fffffffffffffffffffffffffffffffffffffffffffffffffffffffffffffffff84846121d1565b905092915050565b6000826121e1576001905061229d565b816121ef576000905061229d565b8160018114612205576002811461220f5761223e565b600191505061229d565b60ff8411156122215761222061257d565b5b8360020a9150848211156122385761223761257d565b5b5061229d565b5060208310610133831016604e8410600b84101617156122735782820a90508381111561226e5761226d61257d565b5b61229d565b6122808484846001612133565b925090508184048111156122975761229661257d565b5b81810290505b9392505050565b60006122af82612415565b91506122ba83612415565b9250817fffffffffffffffffffffffffffffffffffffffffffffffffffffffffffffffff04831182151516156122f3576122f261257d565b5b828202905092915050565b60006123098261241f565b91506123148361241f565b92508160ff048311821515161561232e5761232d61257d565b5b828202905092915050565b600061234482612415565b915061234f83612415565b9250828210156123625761236161257d565b5b828203905092915050565b60006123788261241f565b91506123838361241f565b9250828210156123965761239561257d565b5b828203905092915050565b60006123ac826123f5565b9050919050565b60008115159050919050565b6000819050919050565b60007fffffffff0000000000000000000000000000000000000000000000000000000082169050919050565b600073ffffffffffffffffffffffffffffffffffffffff82169050919050565b6000819050919050565b600060ff82169050919050565b60006124378261243e565b9050919050565b600061244982612450565b9050919050565b600061245b826123f5565b9050919050565b82818337600083830152505050565b60005b8381101561248f578082015181840152602081019050612474565b8381111561249e576000848401525b50505050565b6124ad8261264d565b810181811067ffffffffffffffff821117156124cc576124cb61260a565b5b80604052505050565b60006124e082612415565b91507fffffffffffffffffffffffffffffffffffffffffffffffffffffffffffffffff8214156125135761251261257d565b5b600182019050919050565b600061252982612530565b9050919050565b600061253b8261265e565b9050919050565b6000819050919050565b600061255782612415565b915061256283612415565b925082612572576125716125ac565b5b828206905092915050565b7f4e487b7100000000000000000000000000000000000000000000000000000000600052601160045260246000fd5b7f4e487b7100000000000000000000000000000000000000000000000000000000600052601260045260246000fd5b7f4e487b7100000000000000000000000000000000000000000000000000000000600052603260045260246000fd5b7f4e487b7100000000000000000000000000000000000000000000000000000000600052604160045260246000fd5b600080fd5b600080fd5b600080fd5b600080fd5b6000601f19601f8301169050919050565b60008160601b9050919050565b60008160011c9050919050565b7f4d7573742062652070726f706f736564206f776e657200000000000000000000600082015250565b7f756e61626c6520746f207472616e73666572416e6443616c6c20746f206f726160008201527f636c650000000000000000000000000000000000000000000000000000000000602082015250565b7f4f6e6c792063616c6c61626c65206279206f776e657200000000000000000000600082015250565b7f556e61626c6520746f207472616e736665720000000000000000000000000000600082015250565b7f43616e6e6f74207472616e7366657220746f2073656c66000000000000000000600082015250565b7f536f75726365206d75737420626520746865206f7261636c65206f662074686560008201527f2072657175657374000000000000000000000000000000000000000000000000602082015250565b6127c3816123a1565b81146127ce57600080fd5b50565b6127da816123b3565b81146127e557600080fd5b50565b6127f1816123bf565b81146127fc57600080fd5b50565b612808816123c9565b811461281357600080fd5b50565b61281f81612415565b811461282a57600080fd5b5056fea2646970667358221220421592f56595345202dd012faaa560c716d54b3bc2770fc5267cbfe47c1a692e64736f6c63430008070033",
  "immutableReferences": {},
  "source": "// SPDX-License-Identifier: MIT\npragma solidity ^0.8.7;\n\nimport \"@chainlink/contracts/src/v0.8/ChainlinkClient.sol\";\nimport \"@chainlink/contracts/src/v0.8/ConfirmedOwner.sol\";\n\ncontract ChainScoreClient is ChainlinkClient, ConfirmedOwner {\n    using Chainlink for Chainlink.Request;\n\n    uint256 private constant ORACLE_PAYMENT = 1 * LINK_DIVISIBILITY;\n\n    event ScoreRequestFulfilled(\n        bytes32 indexed requestId,\n        uint256 indexed score,\n        uint256 supply_score,\n        uint256 value_score,\n        uint256 repayment_score,\n        uint256 debt_score,\n        address indexed user\n    );\n\n    mapping(address => uint256) public scores;\n    mapping(address => uint256) public supply_scores;\n    mapping(address => uint256) public value_scores;\n    mapping(address => uint256) public repayment_scores;\n    mapping(address => uint256) public debt_scores;\n\n    constructor(address scoreToken, address oracle) ConfirmedOwner(msg.sender) {\n        setChainlinkToken(scoreToken);\n        setChainlinkOracle(oracle);\n    }\n\n    /** ============================= */\n    /** ============================= */\n\n    function requestScore(address _address, bytes32 _jobSpec)\n        public\n    {\n        Chainlink.Request memory req = buildChainlinkRequest(\n            _jobSpec,\n            address(this),\n            this.fulfillScore.selector\n        );\n        \n        req.add(\"address\", toAsciiString(_address));\n\n        requestOracleData(req, ORACLE_PAYMENT);\n    }\n\n    function fulfillScore(\n        bytes32 requestId,\n        uint256 score,\n        uint256 supply_score,\n        uint256 value_score,\n        uint256 repayment_score,\n        uint256 debt_score,\n        address account\n    ) public recordChainlinkFulfillment(requestId) {\n\n        emit ScoreRequestFulfilled(\n            requestId, \n            score, \n            supply_score, \n            value_score, \n            repayment_score, \n            debt_score, \n            account);\n\n        scores[account] = score;\n        supply_scores[account] = supply_score;\n        value_scores[account] = value_score;\n        repayment_scores[account] = repayment_score;\n        debt_scores[account] = debt_score;\n    }\n\n    /** ============================= */\n    /** ============================= */\n\n\n    function updateOracle(address _newOracle) external onlyOwner {\n        setChainlinkOracle(_newOracle);\n    }\n\n    function updateScoreToken(address _newToken) external onlyOwner {\n        setChainlinkToken(_newToken);\n    }\n\n    function withdrawScore() public onlyOwner {\n        LinkTokenInterface link = LinkTokenInterface(chainlinkTokenAddress());\n        require(\n            link.transfer(msg.sender, link.balanceOf(address(this))),\n            \"Unable to transfer\"\n        );\n    }\n\n    function cancelRequest(\n        bytes32 _requestId,\n        uint256 _payment,\n        bytes4 _callbackFunctionId,\n        uint256 _expiration\n    ) public onlyOwner {\n        cancelChainlinkRequest(\n            _requestId,\n            _payment,\n            _callbackFunctionId,\n            _expiration\n        );\n    }\n\n    function stringToBytes32(string memory source)\n        public\n        pure\n        returns (bytes32 result)\n    {\n        bytes memory tempEmptyStringTest = bytes(source);\n        if (tempEmptyStringTest.length == 0) {\n            return 0x0;\n        }\n\n        assembly {\n            // solhint-disable-line no-inline-assembly\n            result := mload(add(source, 32))\n        }\n    }\n\n    function toAsciiString(address x) internal pure returns (string memory) {\n        bytes memory s = new bytes(40);\n        for (uint i = 0; i < 20; i++) {\n            bytes1 b = bytes1(uint8(uint(uint160(x)) / (2**(8*(19 - i)))));\n            bytes1 hi = bytes1(uint8(b) / 16);\n            bytes1 lo = bytes1(uint8(b) - 16 * uint8(hi));\n            s[2*i] = char(hi);\n            s[2*i+1] = char(lo);            \n        }\n        return string(s);\n    }\n\n    function char(bytes1 b) internal pure returns (bytes1 c) {\n        if (uint8(b) < 10) return bytes1(uint8(b) + 0x30);\n        else return bytes1(uint8(b) + 0x57);\n    }\n}\n",
  "sourcePath": "/home/prasad/Desktop/chainscore/alpha/contracts/ChainScoreClient.sol",
  "compiler": {
    "name": "solc",
    "version": "0.8.7+commit.e28d00a7.Emscripten.clang"
  },
  "schemaVersion": "3.4.3",
  "updatedAt": "2021-12-09T20:33:41.432Z",
  "devdoc": {
    "kind": "dev",
    "methods": {},
    "version": 1
  },
  "userdoc": {
    "kind": "user",
    "methods": {
      "acceptOwnership()": {
        "notice": "Allows an ownership transfer to be completed by the recipient."
      },
      "owner()": {
        "notice": "Get the current owner"
      },
      "requestScore(address,bytes32)": {
        "notice": "============================= "
      },
      "transferOwnership(address)": {
        "notice": "Allows an owner to begin transferring ownership to a new address, pending."
      },
      "updateOracle(address)": {
        "notice": "============================= "
      }
    },
    "version": 1
  }
}